{
  "_format": "hh-sol-artifact-1",
  "contractName": "AssetDispenserNfts",
  "sourceName": "contracts/PublicNftContract.sol",
  "abi": [
    {
      "inputs": [
        {
          "internalType": "address",
          "name": "initialOwner",
          "type": "address"
        }
      ],
      "stateMutability": "nonpayable",
      "type": "constructor"
    },
    {
      "inputs": [],
      "name": "ERC721EnumerableForbiddenBatchMint",
      "type": "error"
    },
    {
      "inputs": [
        {
          "internalType": "address",
          "name": "sender",
          "type": "address"
        },
        {
          "internalType": "uint256",
          "name": "tokenId",
          "type": "uint256"
        },
        {
          "internalType": "address",
          "name": "owner",
          "type": "address"
        }
      ],
      "name": "ERC721IncorrectOwner",
      "type": "error"
    },
    {
      "inputs": [
        {
          "internalType": "address",
          "name": "operator",
          "type": "address"
        },
        {
          "internalType": "uint256",
          "name": "tokenId",
          "type": "uint256"
        }
      ],
      "name": "ERC721InsufficientApproval",
      "type": "error"
    },
    {
      "inputs": [
        {
          "internalType": "address",
          "name": "approver",
          "type": "address"
        }
      ],
      "name": "ERC721InvalidApprover",
      "type": "error"
    },
    {
      "inputs": [
        {
          "internalType": "address",
          "name": "operator",
          "type": "address"
        }
      ],
      "name": "ERC721InvalidOperator",
      "type": "error"
    },
    {
      "inputs": [
        {
          "internalType": "address",
          "name": "owner",
          "type": "address"
        }
      ],
      "name": "ERC721InvalidOwner",
      "type": "error"
    },
    {
      "inputs": [
        {
          "internalType": "address",
          "name": "receiver",
          "type": "address"
        }
      ],
      "name": "ERC721InvalidReceiver",
      "type": "error"
    },
    {
      "inputs": [
        {
          "internalType": "address",
          "name": "sender",
          "type": "address"
        }
      ],
      "name": "ERC721InvalidSender",
      "type": "error"
    },
    {
      "inputs": [
        {
          "internalType": "uint256",
          "name": "tokenId",
          "type": "uint256"
        }
      ],
      "name": "ERC721NonexistentToken",
      "type": "error"
    },
    {
      "inputs": [
        {
          "internalType": "address",
          "name": "owner",
          "type": "address"
        },
        {
          "internalType": "uint256",
          "name": "index",
          "type": "uint256"
        }
      ],
      "name": "ERC721OutOfBoundsIndex",
      "type": "error"
    },
    {
      "inputs": [
        {
          "internalType": "address",
          "name": "owner",
          "type": "address"
        }
      ],
      "name": "OwnableInvalidOwner",
      "type": "error"
    },
    {
      "inputs": [
        {
          "internalType": "address",
          "name": "account",
          "type": "address"
        }
      ],
      "name": "OwnableUnauthorizedAccount",
      "type": "error"
    },
    {
      "anonymous": false,
      "inputs": [
        {
          "indexed": true,
          "internalType": "address",
          "name": "owner",
          "type": "address"
        },
        {
          "indexed": true,
          "internalType": "address",
          "name": "approved",
          "type": "address"
        },
        {
          "indexed": true,
          "internalType": "uint256",
          "name": "tokenId",
          "type": "uint256"
        }
      ],
      "name": "Approval",
      "type": "event"
    },
    {
      "anonymous": false,
      "inputs": [
        {
          "indexed": true,
          "internalType": "address",
          "name": "owner",
          "type": "address"
        },
        {
          "indexed": true,
          "internalType": "address",
          "name": "operator",
          "type": "address"
        },
        {
          "indexed": false,
          "internalType": "bool",
          "name": "approved",
          "type": "bool"
        }
      ],
      "name": "ApprovalForAll",
      "type": "event"
    },
    {
      "anonymous": false,
      "inputs": [
        {
          "indexed": false,
          "internalType": "uint256",
          "name": "_fromTokenId",
          "type": "uint256"
        },
        {
          "indexed": false,
          "internalType": "uint256",
          "name": "_toTokenId",
          "type": "uint256"
        }
      ],
      "name": "BatchMetadataUpdate",
      "type": "event"
    },
    {
      "anonymous": false,
      "inputs": [
        {
          "indexed": false,
          "internalType": "uint256",
          "name": "_tokenId",
          "type": "uint256"
        }
      ],
      "name": "MetadataUpdate",
      "type": "event"
    },
    {
      "anonymous": false,
      "inputs": [
        {
          "indexed": true,
          "internalType": "address",
          "name": "previousOwner",
          "type": "address"
        },
        {
          "indexed": true,
          "internalType": "address",
          "name": "newOwner",
          "type": "address"
        }
      ],
      "name": "OwnershipTransferred",
      "type": "event"
    },
    {
      "anonymous": false,
      "inputs": [
        {
          "indexed": true,
          "internalType": "address",
          "name": "from",
          "type": "address"
        },
        {
          "indexed": true,
          "internalType": "address",
          "name": "to",
          "type": "address"
        },
        {
          "indexed": true,
          "internalType": "uint256",
          "name": "tokenId",
          "type": "uint256"
        }
      ],
      "name": "Transfer",
      "type": "event"
    },
    {
      "inputs": [
        {
          "internalType": "address",
          "name": "to",
          "type": "address"
        },
        {
          "internalType": "uint256",
          "name": "tokenId",
          "type": "uint256"
        }
      ],
      "name": "approve",
      "outputs": [],
      "stateMutability": "nonpayable",
      "type": "function"
    },
    {
      "inputs": [
        {
          "internalType": "address",
          "name": "owner",
          "type": "address"
        }
      ],
      "name": "balanceOf",
      "outputs": [
        {
          "internalType": "uint256",
          "name": "",
          "type": "uint256"
        }
      ],
      "stateMutability": "view",
      "type": "function"
    },
    {
      "inputs": [
        {
          "internalType": "bool",
          "name": "_publicMintOpen",
          "type": "bool"
        }
      ],
      "name": "enablePublicMinting",
      "outputs": [],
      "stateMutability": "nonpayable",
      "type": "function"
    },
    {
      "inputs": [
        {
          "internalType": "uint256",
          "name": "tokenId",
          "type": "uint256"
        }
      ],
      "name": "getApproved",
      "outputs": [
        {
          "internalType": "address",
          "name": "",
          "type": "address"
        }
      ],
      "stateMutability": "view",
      "type": "function"
    },
    {
      "inputs": [
        {
          "internalType": "address",
          "name": "owner",
          "type": "address"
        },
        {
          "internalType": "address",
          "name": "operator",
          "type": "address"
        }
      ],
      "name": "isApprovedForAll",
      "outputs": [
        {
          "internalType": "bool",
          "name": "",
          "type": "bool"
        }
      ],
      "stateMutability": "view",
      "type": "function"
    },
    {
      "inputs": [],
      "name": "maxPerWallet",
      "outputs": [
        {
          "internalType": "uint256",
          "name": "",
          "type": "uint256"
        }
      ],
      "stateMutability": "view",
      "type": "function"
    },
    {
      "inputs": [],
      "name": "maxSupply",
      "outputs": [
        {
          "internalType": "uint256",
          "name": "",
          "type": "uint256"
        }
      ],
      "stateMutability": "view",
      "type": "function"
    },
    {
      "inputs": [],
      "name": "mintPrice",
      "outputs": [
        {
          "internalType": "uint256",
          "name": "",
          "type": "uint256"
        }
      ],
      "stateMutability": "view",
      "type": "function"
    },
    {
      "inputs": [],
      "name": "name",
      "outputs": [
        {
          "internalType": "string",
          "name": "",
          "type": "string"
        }
      ],
      "stateMutability": "view",
      "type": "function"
    },
    {
      "inputs": [],
      "name": "owner",
      "outputs": [
        {
          "internalType": "address",
          "name": "",
          "type": "address"
        }
      ],
      "stateMutability": "view",
      "type": "function"
    },
    {
      "inputs": [
        {
          "internalType": "uint256",
          "name": "tokenId",
          "type": "uint256"
        }
      ],
      "name": "ownerOf",
      "outputs": [
        {
          "internalType": "address",
          "name": "",
          "type": "address"
        }
      ],
      "stateMutability": "view",
      "type": "function"
    },
    {
      "inputs": [
        {
          "internalType": "string",
          "name": "uri",
          "type": "string"
        },
        {
          "internalType": "uint256",
          "name": "quantity_",
          "type": "uint256"
        }
      ],
      "name": "publicMint",
      "outputs": [],
      "stateMutability": "payable",
      "type": "function"
    },
    {
      "inputs": [],
      "name": "publicMintOpen",
      "outputs": [
        {
          "internalType": "bool",
          "name": "",
          "type": "bool"
        }
      ],
      "stateMutability": "view",
      "type": "function"
    },
    {
      "inputs": [],
      "name": "renounceOwnership",
      "outputs": [],
      "stateMutability": "nonpayable",
      "type": "function"
    },
    {
      "inputs": [
        {
          "internalType": "address",
          "name": "to",
          "type": "address"
        },
        {
          "internalType": "string",
          "name": "uri",
          "type": "string"
        }
      ],
      "name": "safeMint",
      "outputs": [],
      "stateMutability": "nonpayable",
      "type": "function"
    },
    {
      "inputs": [
        {
          "internalType": "address",
          "name": "from",
          "type": "address"
        },
        {
          "internalType": "address",
          "name": "to",
          "type": "address"
        },
        {
          "internalType": "uint256",
          "name": "tokenId",
          "type": "uint256"
        }
      ],
      "name": "safeTransferFrom",
      "outputs": [],
      "stateMutability": "nonpayable",
      "type": "function"
    },
    {
      "inputs": [
        {
          "internalType": "address",
          "name": "from",
          "type": "address"
        },
        {
          "internalType": "address",
          "name": "to",
          "type": "address"
        },
        {
          "internalType": "uint256",
          "name": "tokenId",
          "type": "uint256"
        },
        {
          "internalType": "bytes",
          "name": "data",
          "type": "bytes"
        }
      ],
      "name": "safeTransferFrom",
      "outputs": [],
      "stateMutability": "nonpayable",
      "type": "function"
    },
    {
      "inputs": [
        {
          "internalType": "address",
          "name": "operator",
          "type": "address"
        },
        {
          "internalType": "bool",
          "name": "approved",
          "type": "bool"
        }
      ],
      "name": "setApprovalForAll",
      "outputs": [],
      "stateMutability": "nonpayable",
      "type": "function"
    },
    {
      "inputs": [
        {
          "internalType": "string",
          "name": "baseTokenUri_",
          "type": "string"
        }
      ],
      "name": "setBaseTokenUri",
      "outputs": [],
      "stateMutability": "nonpayable",
      "type": "function"
    },
    {
      "inputs": [
        {
          "internalType": "bytes4",
          "name": "interfaceId",
          "type": "bytes4"
        }
      ],
      "name": "supportsInterface",
      "outputs": [
        {
          "internalType": "bool",
          "name": "",
          "type": "bool"
        }
      ],
      "stateMutability": "view",
      "type": "function"
    },
    {
      "inputs": [],
      "name": "symbol",
      "outputs": [
        {
          "internalType": "string",
          "name": "",
          "type": "string"
        }
      ],
      "stateMutability": "view",
      "type": "function"
    },
    {
      "inputs": [
        {
          "internalType": "uint256",
          "name": "index",
          "type": "uint256"
        }
      ],
      "name": "tokenByIndex",
      "outputs": [
        {
          "internalType": "uint256",
          "name": "",
          "type": "uint256"
        }
      ],
      "stateMutability": "view",
      "type": "function"
    },
    {
      "inputs": [
        {
          "internalType": "address",
          "name": "owner",
          "type": "address"
        },
        {
          "internalType": "uint256",
          "name": "index",
          "type": "uint256"
        }
      ],
      "name": "tokenOfOwnerByIndex",
      "outputs": [
        {
          "internalType": "uint256",
          "name": "",
          "type": "uint256"
        }
      ],
      "stateMutability": "view",
      "type": "function"
    },
    {
      "inputs": [
        {
          "internalType": "uint256",
          "name": "tokenId",
          "type": "uint256"
        }
      ],
      "name": "tokenURI",
      "outputs": [
        {
          "internalType": "string",
          "name": "",
          "type": "string"
        }
      ],
      "stateMutability": "view",
      "type": "function"
    },
    {
      "inputs": [],
      "name": "totalSupply",
      "outputs": [
        {
          "internalType": "uint256",
          "name": "",
          "type": "uint256"
        }
      ],
      "stateMutability": "view",
      "type": "function"
    },
    {
      "inputs": [
        {
          "internalType": "address",
          "name": "from",
          "type": "address"
        },
        {
          "internalType": "address",
          "name": "to",
          "type": "address"
        },
        {
          "internalType": "uint256",
          "name": "tokenId",
          "type": "uint256"
        }
      ],
      "name": "transferFrom",
      "outputs": [],
      "stateMutability": "nonpayable",
      "type": "function"
    },
    {
      "inputs": [
        {
          "internalType": "address",
          "name": "newOwner",
          "type": "address"
        }
      ],
      "name": "transferOwnership",
      "outputs": [],
      "stateMutability": "nonpayable",
      "type": "function"
    },
    {
      "inputs": [
        {
          "internalType": "address",
          "name": "",
          "type": "address"
        }
      ],
      "name": "walletMints",
      "outputs": [
        {
          "internalType": "uint256",
          "name": "",
          "type": "uint256"
        }
      ],
      "stateMutability": "view",
      "type": "function"
    },
    {
      "inputs": [],
      "name": "withdraw",
      "outputs": [],
      "stateMutability": "nonpayable",
      "type": "function"
    },
    {
      "inputs": [],
      "name": "withdrawWallet",
      "outputs": [
        {
          "internalType": "address payable",
          "name": "",
          "type": "address"
        }
      ],
      "stateMutability": "view",
      "type": "function"
    }
  ],
  "bytecode": "0x60806040526001601160006101000a81548160ff0219169083151502179055503480156200002c57600080fd5b5060405162004066380380620040668339818101604052810190620000529190620002c9565b806040518060400160405280601281526020017f417373657444697370656e7365724e66747300000000000000000000000000008152506040518060400160405280600381526020017f41444e00000000000000000000000000000000000000000000000000000000008152508160009081620000d0919062000575565b508060019081620000e2919062000575565b505050600073ffffffffffffffffffffffffffffffffffffffff168173ffffffffffffffffffffffffffffffffffffffff16036200015a5760006040517f1e4fbdf70000000000000000000000000000000000000000000000000000000081526004016200015191906200066d565b60405180910390fd5b6200016b816200019960201b60201c565b5066038d7ea4c68000600f8190555060006010819055506064600d819055506003600e81905550506200068a565b6000600b60009054906101000a900473ffffffffffffffffffffffffffffffffffffffff16905081600b60006101000a81548173ffffffffffffffffffffffffffffffffffffffff021916908373ffffffffffffffffffffffffffffffffffffffff1602179055508173ffffffffffffffffffffffffffffffffffffffff168173ffffffffffffffffffffffffffffffffffffffff167f8be0079c531659141344cd1fd0a4f28419497f9722a3daafe3b4186f6b6457e060405160405180910390a35050565b600080fd5b600073ffffffffffffffffffffffffffffffffffffffff82169050919050565b6000620002918262000264565b9050919050565b620002a38162000284565b8114620002af57600080fd5b50565b600081519050620002c38162000298565b92915050565b600060208284031215620002e257620002e16200025f565b5b6000620002f284828501620002b2565b91505092915050565b600081519050919050565b7f4e487b7100000000000000000000000000000000000000000000000000000000600052604160045260246000fd5b7f4e487b7100000000000000000000000000000000000000000000000000000000600052602260045260246000fd5b600060028204905060018216806200037d57607f821691505b60208210810362000393576200039262000335565b5b50919050565b60008190508160005260206000209050919050565b60006020601f8301049050919050565b600082821b905092915050565b600060088302620003fd7fffffffffffffffffffffffffffffffffffffffffffffffffffffffffffffffff82620003be565b620004098683620003be565b95508019841693508086168417925050509392505050565b6000819050919050565b6000819050919050565b600062000456620004506200044a8462000421565b6200042b565b62000421565b9050919050565b6000819050919050565b620004728362000435565b6200048a62000481826200045d565b848454620003cb565b825550505050565b600090565b620004a162000492565b620004ae81848462000467565b505050565b5b81811015620004d657620004ca60008262000497565b600181019050620004b4565b5050565b601f8211156200052557620004ef8162000399565b620004fa84620003ae565b810160208510156200050a578190505b620005226200051985620003ae565b830182620004b3565b50505b505050565b600082821c905092915050565b60006200054a600019846008026200052a565b1980831691505092915050565b600062000565838362000537565b9150826002028217905092915050565b6200058082620002fb565b67ffffffffffffffff8111156200059c576200059b62000306565b5b620005a8825462000364565b620005b5828285620004da565b600060209050601f831160018114620005ed5760008415620005d8578287015190505b620005e4858262000557565b86555062000654565b601f198416620005fd8662000399565b60005b82811015620006275784890151825560018201915060208501945060208101905062000600565b8683101562000647578489015162000643601f89168262000537565b8355505b6001600288020188555050505b505050505050565b620006678162000284565b82525050565b60006020820190506200068460008301846200065c565b92915050565b6139cc806200069a6000396000f3fe6080604052600436106101cd5760003560e01c8063715018a6116100f7578063bcc9ca5b11610095578063d5abeb0111610064578063d5abeb0114610667578063e985e9c514610692578063f0293fd3146106cf578063f2fde38b1461070c576101cd565b8063bcc9ca5b146105ad578063c87b56dd146105d8578063d10740de14610615578063d204c45e1461063e576101cd565b806395652cfa116100d157806395652cfa1461050757806395d89b4114610530578063a22cb4651461055b578063b88d4fde14610584576101cd565b8063715018a61461049a57806385d178f4146104b15780638da5cb5b146104dc576101cd565b80632f745c591161016f5780634f6ccce71161013e5780634f6ccce7146103b85780636352211e146103f55780636817c76c1461043257806370a082311461045d576101cd565b80632f745c59146103105780633ccfd60b1461034d57806342842e0e14610364578063453c23101461038d576101cd565b8063095ea7b3116101ab578063095ea7b31461027757806318160ddd146102a057806323b872dd146102cb5780632a98fbe9146102f4576101cd565b806301ffc9a7146101d257806306fdde031461020f578063081812fc1461023a575b600080fd5b3480156101de57600080fd5b506101f960048036038101906101f491906127fb565b610735565b6040516102069190612843565b60405180910390f35b34801561021b57600080fd5b50610224610747565b60405161023191906128ee565b60405180910390f35b34801561024657600080fd5b50610261600480360381019061025c9190612946565b6107d9565b60405161026e91906129b4565b60405180910390f35b34801561028357600080fd5b5061029e600480360381019061029991906129fb565b6107f5565b005b3480156102ac57600080fd5b506102b561080b565b6040516102c29190612a4a565b60405180910390f35b3480156102d757600080fd5b506102f260048036038101906102ed9190612a65565b610818565b005b61030e60048036038101906103099190612bed565b61091a565b005b34801561031c57600080fd5b50610337600480360381019061033291906129fb565b610b04565b6040516103449190612a4a565b60405180910390f35b34801561035957600080fd5b50610362610bad565b005b34801561037057600080fd5b5061038b60048036038101906103869190612a65565b610c86565b005b34801561039957600080fd5b506103a2610ca6565b6040516103af9190612a4a565b60405180910390f35b3480156103c457600080fd5b506103df60048036038101906103da9190612946565b610cac565b6040516103ec9190612a4a565b60405180910390f35b34801561040157600080fd5b5061041c60048036038101906104179190612946565b610d22565b60405161042991906129b4565b60405180910390f35b34801561043e57600080fd5b50610447610d34565b6040516104549190612a4a565b60405180910390f35b34801561046957600080fd5b50610484600480360381019061047f9190612c49565b610d3a565b6040516104919190612a4a565b60405180910390f35b3480156104a657600080fd5b506104af610df4565b005b3480156104bd57600080fd5b506104c6610e08565b6040516104d39190612c97565b60405180910390f35b3480156104e857600080fd5b506104f1610e2e565b6040516104fe91906129b4565b60405180910390f35b34801561051357600080fd5b5061052e60048036038101906105299190612d12565b610e58565b005b34801561053c57600080fd5b50610545610e76565b60405161055291906128ee565b60405180910390f35b34801561056757600080fd5b50610582600480360381019061057d9190612d8b565b610f08565b005b34801561059057600080fd5b506105ab60048036038101906105a69190612e6c565b610f1e565b005b3480156105b957600080fd5b506105c2610f3b565b6040516105cf9190612843565b60405180910390f35b3480156105e457600080fd5b506105ff60048036038101906105fa9190612946565b610f4e565b60405161060c91906128ee565b60405180910390f35b34801561062157600080fd5b5061063c60048036038101906106379190612eef565b610f60565b005b34801561064a57600080fd5b5061066560048036038101906106609190612f1c565b610f85565b005b34801561067357600080fd5b5061067c610fc1565b6040516106899190612a4a565b60405180910390f35b34801561069e57600080fd5b506106b960048036038101906106b49190612f78565b610fc7565b6040516106c69190612843565b60405180910390f35b3480156106db57600080fd5b506106f660048036038101906106f19190612c49565b61105b565b6040516107039190612a4a565b60405180910390f35b34801561071857600080fd5b50610733600480360381019061072e9190612c49565b611073565b005b6000610740826110f9565b9050919050565b60606000805461075690612fe7565b80601f016020809104026020016040519081016040528092919081815260200182805461078290612fe7565b80156107cf5780601f106107a4576101008083540402835291602001916107cf565b820191906000526020600020905b8154815290600101906020018083116107b257829003601f168201915b5050505050905090565b60006107e48261115a565b506107ee826111e2565b9050919050565b610807828261080261121f565b611227565b5050565b6000600880549050905090565b600073ffffffffffffffffffffffffffffffffffffffff168273ffffffffffffffffffffffffffffffffffffffff160361088a5760006040517f64a0ae9200000000000000000000000000000000000000000000000000000000815260040161088191906129b4565b60405180910390fd5b600061089e838361089961121f565b611239565b90508373ffffffffffffffffffffffffffffffffffffffff168173ffffffffffffffffffffffffffffffffffffffff1614610914578382826040517f64283d7b00000000000000000000000000000000000000000000000000000000815260040161090b93929190613018565b60405180910390fd5b50505050565b601160009054906101000a900460ff16610969576040517f08c379a0000000000000000000000000000000000000000000000000000000008152600401610960906130c1565b60405180910390fd5b600f54816109779190613110565b34146109b8576040517f08c379a00000000000000000000000000000000000000000000000000000000081526004016109af9061319e565b60405180910390fd5b600d54816010546109c991906131be565b1115610a0a576040517f08c379a0000000000000000000000000000000000000000000000000000000008152600401610a019061328a565b60405180910390fd5b600e5481601460003373ffffffffffffffffffffffffffffffffffffffff1673ffffffffffffffffffffffffffffffffffffffff16815260200190815260200160002054610a5891906131be565b1115610a99576040517f08c379a0000000000000000000000000000000000000000000000000000000008152600401610a90906132f6565b60405180910390fd5b60005b81811015610aff576000600c6000815480929190610ab990613316565b91905055905060106000815480929190610ad290613316565b9190505550610ae1338261124f565b610aeb818561126d565b508080610af790613316565b915050610a9c565b505050565b6000610b0f83610d3a565b8210610b545782826040517fa57d13dc000000000000000000000000000000000000000000000000000000008152600401610b4b92919061335e565b60405180910390fd5b600660008473ffffffffffffffffffffffffffffffffffffffff1673ffffffffffffffffffffffffffffffffffffffff168152602001908152602001600020600083815260200190815260200160002054905092915050565b610bb56112c9565b6000601360009054906101000a900473ffffffffffffffffffffffffffffffffffffffff1673ffffffffffffffffffffffffffffffffffffffff1647604051610bfd906133b8565b60006040518083038185875af1925050503d8060008114610c3a576040519150601f19603f3d011682016040523d82523d6000602084013e610c3f565b606091505b5050905080610c83576040517f08c379a0000000000000000000000000000000000000000000000000000000008152600401610c7a90613419565b60405180910390fd5b50565b610ca183838360405180602001604052806000815250610f1e565b505050565b600e5481565b6000610cb661080b565b8210610cfc576000826040517fa57d13dc000000000000000000000000000000000000000000000000000000008152600401610cf392919061335e565b60405180910390fd5b60088281548110610d1057610d0f613439565b5b90600052602060002001549050919050565b6000610d2d8261115a565b9050919050565b600f5481565b60008073ffffffffffffffffffffffffffffffffffffffff168273ffffffffffffffffffffffffffffffffffffffff1603610dad5760006040517f89c62b64000000000000000000000000000000000000000000000000000000008152600401610da491906129b4565b60405180910390fd5b600360008373ffffffffffffffffffffffffffffffffffffffff1673ffffffffffffffffffffffffffffffffffffffff168152602001908152602001600020549050919050565b610dfc6112c9565b610e066000611350565b565b601360009054906101000a900473ffffffffffffffffffffffffffffffffffffffff1681565b6000600b60009054906101000a900473ffffffffffffffffffffffffffffffffffffffff16905090565b610e606112c9565b818160129182610e7192919061361f565b505050565b606060018054610e8590612fe7565b80601f0160208091040260200160405190810160405280929190818152602001828054610eb190612fe7565b8015610efe5780601f10610ed357610100808354040283529160200191610efe565b820191906000526020600020905b815481529060010190602001808311610ee157829003601f168201915b5050505050905090565b610f1a610f1361121f565b8383611416565b5050565b610f29848484610818565b610f3584848484611585565b50505050565b601160009054906101000a900460ff1681565b6060610f598261173c565b9050919050565b610f686112c9565b80601160006101000a81548160ff02191690831515021790555050565b610f8d6112c9565b6000600c6000815480929190610fa290613316565b919050559050610fb2838261124f565b610fbc818361126d565b505050565b600d5481565b6000600560008473ffffffffffffffffffffffffffffffffffffffff1673ffffffffffffffffffffffffffffffffffffffff16815260200190815260200160002060008373ffffffffffffffffffffffffffffffffffffffff1673ffffffffffffffffffffffffffffffffffffffff16815260200190815260200160002060009054906101000a900460ff16905092915050565b60146020528060005260406000206000915090505481565b61107b6112c9565b600073ffffffffffffffffffffffffffffffffffffffff168173ffffffffffffffffffffffffffffffffffffffff16036110ed5760006040517f1e4fbdf70000000000000000000000000000000000000000000000000000000081526004016110e491906129b4565b60405180910390fd5b6110f681611350565b50565b6000634906490660e01b7bffffffffffffffffffffffffffffffffffffffffffffffffffffffff1916827bffffffffffffffffffffffffffffffffffffffffffffffffffffffff1916148061115357506111528261184f565b5b9050919050565b600080611166836118c9565b9050600073ffffffffffffffffffffffffffffffffffffffff168173ffffffffffffffffffffffffffffffffffffffff16036111d957826040517f7e2732890000000000000000000000000000000000000000000000000000000081526004016111d09190612a4a565b60405180910390fd5b80915050919050565b60006004600083815260200190815260200160002060009054906101000a900473ffffffffffffffffffffffffffffffffffffffff169050919050565b600033905090565b6112348383836001611906565b505050565b6000611246848484611acb565b90509392505050565b611269828260405180602001604052806000815250611be8565b5050565b80600a6000848152602001908152602001600020908161128d91906136ef565b507ff8e1a15aba9398e019f0b49df1a4fde98ee17ae345cb5f6b5e2c27f5033e8ce7826040516112bd9190612a4a565b60405180910390a15050565b6112d161121f565b73ffffffffffffffffffffffffffffffffffffffff166112ef610e2e565b73ffffffffffffffffffffffffffffffffffffffff161461134e5761131261121f565b6040517f118cdaa700000000000000000000000000000000000000000000000000000000815260040161134591906129b4565b60405180910390fd5b565b6000600b60009054906101000a900473ffffffffffffffffffffffffffffffffffffffff16905081600b60006101000a81548173ffffffffffffffffffffffffffffffffffffffff021916908373ffffffffffffffffffffffffffffffffffffffff1602179055508173ffffffffffffffffffffffffffffffffffffffff168173ffffffffffffffffffffffffffffffffffffffff167f8be0079c531659141344cd1fd0a4f28419497f9722a3daafe3b4186f6b6457e060405160405180910390a35050565b600073ffffffffffffffffffffffffffffffffffffffff168273ffffffffffffffffffffffffffffffffffffffff160361148757816040517f5b08ba1800000000000000000000000000000000000000000000000000000000815260040161147e91906129b4565b60405180910390fd5b80600560008573ffffffffffffffffffffffffffffffffffffffff1673ffffffffffffffffffffffffffffffffffffffff16815260200190815260200160002060008473ffffffffffffffffffffffffffffffffffffffff1673ffffffffffffffffffffffffffffffffffffffff16815260200190815260200160002060006101000a81548160ff0219169083151502179055508173ffffffffffffffffffffffffffffffffffffffff168373ffffffffffffffffffffffffffffffffffffffff167f17307eab39ab6107e8899845ad3d59bd9653f200f220920489ca2b5937696c31836040516115789190612843565b60405180910390a3505050565b60008373ffffffffffffffffffffffffffffffffffffffff163b1115611736578273ffffffffffffffffffffffffffffffffffffffff1663150b7a026115c961121f565b8685856040518563ffffffff1660e01b81526004016115eb9493929190613816565b6020604051808303816000875af192505050801561162757506040513d601f19601f820116820180604052508101906116249190613877565b60015b6116ab573d8060008114611657576040519150601f19603f3d011682016040523d82523d6000602084013e61165c565b606091505b5060008151036116a357836040517f64a0ae9200000000000000000000000000000000000000000000000000000000815260040161169a91906129b4565b60405180910390fd5b805181602001fd5b63150b7a0260e01b7bffffffffffffffffffffffffffffffffffffffffffffffffffffffff1916817bffffffffffffffffffffffffffffffffffffffffffffffffffffffff19161461173457836040517f64a0ae9200000000000000000000000000000000000000000000000000000000815260040161172b91906129b4565b60405180910390fd5b505b50505050565b60606117478261115a565b506000600a6000848152602001908152602001600020805461176890612fe7565b80601f016020809104026020016040519081016040528092919081815260200182805461179490612fe7565b80156117e15780601f106117b6576101008083540402835291602001916117e1565b820191906000526020600020905b8154815290600101906020018083116117c457829003601f168201915b5050505050905060006117f2611c04565b9050600081510361180757819250505061184a565b60008251111561183c5780826040516020016118249291906138e0565b6040516020818303038152906040529250505061184a565b61184584611c1b565b925050505b919050565b60007f780e9d63000000000000000000000000000000000000000000000000000000007bffffffffffffffffffffffffffffffffffffffffffffffffffffffff1916827bffffffffffffffffffffffffffffffffffffffffffffffffffffffff191614806118c257506118c182611c84565b5b9050919050565b60006002600083815260200190815260200160002060009054906101000a900473ffffffffffffffffffffffffffffffffffffffff169050919050565b808061193f5750600073ffffffffffffffffffffffffffffffffffffffff168273ffffffffffffffffffffffffffffffffffffffff1614155b15611a7357600061194f8461115a565b9050600073ffffffffffffffffffffffffffffffffffffffff168373ffffffffffffffffffffffffffffffffffffffff16141580156119ba57508273ffffffffffffffffffffffffffffffffffffffff168173ffffffffffffffffffffffffffffffffffffffff1614155b80156119cd57506119cb8184610fc7565b155b15611a0f57826040517fa9fbf51f000000000000000000000000000000000000000000000000000000008152600401611a0691906129b4565b60405180910390fd5b8115611a7157838573ffffffffffffffffffffffffffffffffffffffff168273ffffffffffffffffffffffffffffffffffffffff167f8c5be1e5ebec7d5bd14f71427d1e84f3dd0314c0f7b2291e5b200ac8c7c3b92560405160405180910390a45b505b836004600085815260200190815260200160002060006101000a81548173ffffffffffffffffffffffffffffffffffffffff021916908373ffffffffffffffffffffffffffffffffffffffff16021790555050505050565b600080611ad9858585611d66565b9050600073ffffffffffffffffffffffffffffffffffffffff168173ffffffffffffffffffffffffffffffffffffffff1603611b1d57611b1884611f80565b611b5c565b8473ffffffffffffffffffffffffffffffffffffffff168173ffffffffffffffffffffffffffffffffffffffff1614611b5b57611b5a8185611fc9565b5b5b600073ffffffffffffffffffffffffffffffffffffffff168573ffffffffffffffffffffffffffffffffffffffff1603611b9e57611b998461212a565b611bdd565b8473ffffffffffffffffffffffffffffffffffffffff168173ffffffffffffffffffffffffffffffffffffffff1614611bdc57611bdb85856121fb565b5b5b809150509392505050565b611bf28383612286565b611bff6000848484611585565b505050565b606060405180602001604052806000815250905090565b6060611c268261115a565b506000611c31611c04565b90506000815111611c515760405180602001604052806000815250611c7c565b80611c5b8461237f565b604051602001611c6c9291906138e0565b6040516020818303038152906040525b915050919050565b60007f80ac58cd000000000000000000000000000000000000000000000000000000007bffffffffffffffffffffffffffffffffffffffffffffffffffffffff1916827bffffffffffffffffffffffffffffffffffffffffffffffffffffffff19161480611d4f57507f5b5e139f000000000000000000000000000000000000000000000000000000007bffffffffffffffffffffffffffffffffffffffffffffffffffffffff1916827bffffffffffffffffffffffffffffffffffffffffffffffffffffffff1916145b80611d5f5750611d5e8261244d565b5b9050919050565b600080611d72846118c9565b9050600073ffffffffffffffffffffffffffffffffffffffff168373ffffffffffffffffffffffffffffffffffffffff1614611db457611db38184866124b7565b5b600073ffffffffffffffffffffffffffffffffffffffff168173ffffffffffffffffffffffffffffffffffffffff1614611e4557611df6600085600080611906565b6001600360008373ffffffffffffffffffffffffffffffffffffffff1673ffffffffffffffffffffffffffffffffffffffff168152602001908152602001600020600082825403925050819055505b600073ffffffffffffffffffffffffffffffffffffffff168573ffffffffffffffffffffffffffffffffffffffff1614611ec8576001600360008773ffffffffffffffffffffffffffffffffffffffff1673ffffffffffffffffffffffffffffffffffffffff168152602001908152602001600020600082825401925050819055505b846002600086815260200190815260200160002060006101000a81548173ffffffffffffffffffffffffffffffffffffffff021916908373ffffffffffffffffffffffffffffffffffffffff160217905550838573ffffffffffffffffffffffffffffffffffffffff168273ffffffffffffffffffffffffffffffffffffffff167fddf252ad1be2c89b69c2b068fc378daa952ba7f163c4a11628f55a4df523b3ef60405160405180910390a4809150509392505050565b6008805490506009600083815260200190815260200160002081905550600881908060018154018082558091505060019003906000526020600020016000909190919091505550565b6000611fd483610d3a565b90506000600760008481526020019081526020016000205490508181146120b9576000600660008673ffffffffffffffffffffffffffffffffffffffff1673ffffffffffffffffffffffffffffffffffffffff168152602001908152602001600020600084815260200190815260200160002054905080600660008773ffffffffffffffffffffffffffffffffffffffff1673ffffffffffffffffffffffffffffffffffffffff168152602001908152602001600020600084815260200190815260200160002081905550816007600083815260200190815260200160002081905550505b6007600084815260200190815260200160002060009055600660008573ffffffffffffffffffffffffffffffffffffffff1673ffffffffffffffffffffffffffffffffffffffff16815260200190815260200160002060008381526020019081526020016000206000905550505050565b6000600160088054905061213e9190613904565b905060006009600084815260200190815260200160002054905060006008838154811061216e5761216d613439565b5b9060005260206000200154905080600883815481106121905761218f613439565b5b9060005260206000200181905550816009600083815260200190815260200160002081905550600960008581526020019081526020016000206000905560088054806121df576121de613938565b5b6001900381819060005260206000200160009055905550505050565b6000600161220884610d3a565b6122129190613904565b905081600660008573ffffffffffffffffffffffffffffffffffffffff1673ffffffffffffffffffffffffffffffffffffffff168152602001908152602001600020600083815260200190815260200160002081905550806007600084815260200190815260200160002081905550505050565b600073ffffffffffffffffffffffffffffffffffffffff168273ffffffffffffffffffffffffffffffffffffffff16036122f85760006040517f64a0ae920000000000000000000000000000000000000000000000000000000081526004016122ef91906129b4565b60405180910390fd5b600061230683836000611239565b9050600073ffffffffffffffffffffffffffffffffffffffff168173ffffffffffffffffffffffffffffffffffffffff161461237a5760006040517f73c6ac6e00000000000000000000000000000000000000000000000000000000815260040161237191906129b4565b60405180910390fd5b505050565b60606000600161238e8461257b565b01905060008167ffffffffffffffff8111156123ad576123ac612ac2565b5b6040519080825280601f01601f1916602001820160405280156123df5781602001600182028036833780820191505090505b509050600082602001820190505b600115612442578080600190039150507f3031323334353637383961626364656600000000000000000000000000000000600a86061a8153600a858161243657612435613967565b5b049450600085036123ed575b819350505050919050565b60007f01ffc9a7000000000000000000000000000000000000000000000000000000007bffffffffffffffffffffffffffffffffffffffffffffffffffffffff1916827bffffffffffffffffffffffffffffffffffffffffffffffffffffffff1916149050919050565b6124c28383836126ce565b61257657600073ffffffffffffffffffffffffffffffffffffffff168373ffffffffffffffffffffffffffffffffffffffff160361253757806040517f7e27328900000000000000000000000000000000000000000000000000000000815260040161252e9190612a4a565b60405180910390fd5b81816040517f177e802f00000000000000000000000000000000000000000000000000000000815260040161256d92919061335e565b60405180910390fd5b505050565b600080600090507a184f03e93ff9f4daa797ed6e38ed64bf6a1f01000000000000000083106125d9577a184f03e93ff9f4daa797ed6e38ed64bf6a1f01000000000000000083816125cf576125ce613967565b5b0492506040810190505b6d04ee2d6d415b85acef81000000008310612616576d04ee2d6d415b85acef8100000000838161260c5761260b613967565b5b0492506020810190505b662386f26fc10000831061264557662386f26fc10000838161263b5761263a613967565b5b0492506010810190505b6305f5e100831061266e576305f5e100838161266457612663613967565b5b0492506008810190505b612710831061269357612710838161268957612688613967565b5b0492506004810190505b606483106126b657606483816126ac576126ab613967565b5b0492506002810190505b600a83106126c5576001810190505b80915050919050565b60008073ffffffffffffffffffffffffffffffffffffffff168373ffffffffffffffffffffffffffffffffffffffff161415801561278657508273ffffffffffffffffffffffffffffffffffffffff168473ffffffffffffffffffffffffffffffffffffffff16148061274757506127468484610fc7565b5b8061278557508273ffffffffffffffffffffffffffffffffffffffff1661276d836111e2565b73ffffffffffffffffffffffffffffffffffffffff16145b5b90509392505050565b6000604051905090565b600080fd5b600080fd5b60007fffffffff0000000000000000000000000000000000000000000000000000000082169050919050565b6127d8816127a3565b81146127e357600080fd5b50565b6000813590506127f5816127cf565b92915050565b60006020828403121561281157612810612799565b5b600061281f848285016127e6565b91505092915050565b60008115159050919050565b61283d81612828565b82525050565b60006020820190506128586000830184612834565b92915050565b600081519050919050565b600082825260208201905092915050565b60005b8381101561289857808201518184015260208101905061287d565b60008484015250505050565b6000601f19601f8301169050919050565b60006128c08261285e565b6128ca8185612869565b93506128da81856020860161287a565b6128e3816128a4565b840191505092915050565b6000602082019050818103600083015261290881846128b5565b905092915050565b6000819050919050565b61292381612910565b811461292e57600080fd5b50565b6000813590506129408161291a565b92915050565b60006020828403121561295c5761295b612799565b5b600061296a84828501612931565b91505092915050565b600073ffffffffffffffffffffffffffffffffffffffff82169050919050565b600061299e82612973565b9050919050565b6129ae81612993565b82525050565b60006020820190506129c960008301846129a5565b92915050565b6129d881612993565b81146129e357600080fd5b50565b6000813590506129f5816129cf565b92915050565b60008060408385031215612a1257612a11612799565b5b6000612a20858286016129e6565b9250506020612a3185828601612931565b9150509250929050565b612a4481612910565b82525050565b6000602082019050612a5f6000830184612a3b565b92915050565b600080600060608486031215612a7e57612a7d612799565b5b6000612a8c868287016129e6565b9350506020612a9d868287016129e6565b9250506040612aae86828701612931565b9150509250925092565b600080fd5b600080fd5b7f4e487b7100000000000000000000000000000000000000000000000000000000600052604160045260246000fd5b612afa826128a4565b810181811067ffffffffffffffff82111715612b1957612b18612ac2565b5b80604052505050565b6000612b2c61278f565b9050612b388282612af1565b919050565b600067ffffffffffffffff821115612b5857612b57612ac2565b5b612b61826128a4565b9050602081019050919050565b82818337600083830152505050565b6000612b90612b8b84612b3d565b612b22565b905082815260208101848484011115612bac57612bab612abd565b5b612bb7848285612b6e565b509392505050565b600082601f830112612bd457612bd3612ab8565b5b8135612be4848260208601612b7d565b91505092915050565b60008060408385031215612c0457612c03612799565b5b600083013567ffffffffffffffff811115612c2257612c2161279e565b5b612c2e85828601612bbf565b9250506020612c3f85828601612931565b9150509250929050565b600060208284031215612c5f57612c5e612799565b5b6000612c6d848285016129e6565b91505092915050565b6000612c8182612973565b9050919050565b612c9181612c76565b82525050565b6000602082019050612cac6000830184612c88565b92915050565b600080fd5b600080fd5b60008083601f840112612cd257612cd1612ab8565b5b8235905067ffffffffffffffff811115612cef57612cee612cb2565b5b602083019150836001820283011115612d0b57612d0a612cb7565b5b9250929050565b60008060208385031215612d2957612d28612799565b5b600083013567ffffffffffffffff811115612d4757612d4661279e565b5b612d5385828601612cbc565b92509250509250929050565b612d6881612828565b8114612d7357600080fd5b50565b600081359050612d8581612d5f565b92915050565b60008060408385031215612da257612da1612799565b5b6000612db0858286016129e6565b9250506020612dc185828601612d76565b9150509250929050565b600067ffffffffffffffff821115612de657612de5612ac2565b5b612def826128a4565b9050602081019050919050565b6000612e0f612e0a84612dcb565b612b22565b905082815260208101848484011115612e2b57612e2a612abd565b5b612e36848285612b6e565b509392505050565b600082601f830112612e5357612e52612ab8565b5b8135612e63848260208601612dfc565b91505092915050565b60008060008060808587031215612e8657612e85612799565b5b6000612e94878288016129e6565b9450506020612ea5878288016129e6565b9350506040612eb687828801612931565b925050606085013567ffffffffffffffff811115612ed757612ed661279e565b5b612ee387828801612e3e565b91505092959194509250565b600060208284031215612f0557612f04612799565b5b6000612f1384828501612d76565b91505092915050565b60008060408385031215612f3357612f32612799565b5b6000612f41858286016129e6565b925050602083013567ffffffffffffffff811115612f6257612f6161279e565b5b612f6e85828601612bbf565b9150509250929050565b60008060408385031215612f8f57612f8e612799565b5b6000612f9d858286016129e6565b9250506020612fae858286016129e6565b9150509250929050565b7f4e487b7100000000000000000000000000000000000000000000000000000000600052602260045260246000fd5b60006002820490506001821680612fff57607f821691505b60208210810361301257613011612fb8565b5b50919050565b600060608201905061302d60008301866129a5565b61303a6020830185612a3b565b61304760408301846129a5565b949350505050565b7f5075626c6963206d696e74696e6720697320636c6f736564206174207468652060008201527f6d6f6d656e740000000000000000000000000000000000000000000000000000602082015250565b60006130ab602683612869565b91506130b68261304f565b604082019050919050565b600060208201905081810360008301526130da8161309e565b9050919050565b7f4e487b7100000000000000000000000000000000000000000000000000000000600052601160045260246000fd5b600061311b82612910565b915061312683612910565b925082820261313481612910565b9150828204841483151761314b5761314a6130e1565b5b5092915050565b7f4e6f7420656e6f7567682066756e6473206f6e20796f7572206163636f756e74600082015250565b6000613188602083612869565b915061319382613152565b602082019050919050565b600060208201905081810360008301526131b78161317b565b9050919050565b60006131c982612910565b91506131d483612910565b92508282019050808211156131ec576131eb6130e1565b5b92915050565b7f536f7272792c20576520617265206e6f742061626c6520746f206d696e74207960008201527f6f7572204e46542064756520746f206d6178696d756d20737570706c7920726560208201527f6163686564000000000000000000000000000000000000000000000000000000604082015250565b6000613274604583612869565b915061327f826131f2565b606082019050919050565b600060208201905081810360008301526132a381613267565b9050919050565b7f6578636565646564206d6178206c696d697420666f72206d696e747300000000600082015250565b60006132e0601c83612869565b91506132eb826132aa565b602082019050919050565b6000602082019050818103600083015261330f816132d3565b9050919050565b600061332182612910565b91507fffffffffffffffffffffffffffffffffffffffffffffffffffffffffffffffff8203613353576133526130e1565b5b600182019050919050565b600060408201905061337360008301856129a5565b6133806020830184612a3b565b9392505050565b600081905092915050565b50565b60006133a2600083613387565b91506133ad82613392565b600082019050919050565b60006133c382613395565b9150819050919050565b7f7769746864726177206661696c65640000000000000000000000000000000000600082015250565b6000613403600f83612869565b915061340e826133cd565b602082019050919050565b60006020820190508181036000830152613432816133f6565b9050919050565b7f4e487b7100000000000000000000000000000000000000000000000000000000600052603260045260246000fd5b600082905092915050565b60008190508160005260206000209050919050565b60006020601f8301049050919050565b600082821b905092915050565b6000600883026134d57fffffffffffffffffffffffffffffffffffffffffffffffffffffffffffffffff82613498565b6134df8683613498565b95508019841693508086168417925050509392505050565b6000819050919050565b600061351c61351761351284612910565b6134f7565b612910565b9050919050565b6000819050919050565b61353683613501565b61354a61354282613523565b8484546134a5565b825550505050565b600090565b61355f613552565b61356a81848461352d565b505050565b5b8181101561358e57613583600082613557565b600181019050613570565b5050565b601f8211156135d3576135a481613473565b6135ad84613488565b810160208510156135bc578190505b6135d06135c885613488565b83018261356f565b50505b505050565b600082821c905092915050565b60006135f6600019846008026135d8565b1980831691505092915050565b600061360f83836135e5565b9150826002028217905092915050565b6136298383613468565b67ffffffffffffffff81111561364257613641612ac2565b5b61364c8254612fe7565b613657828285613592565b6000601f8311600181146136865760008415613674578287013590505b61367e8582613603565b8655506136e6565b601f19841661369486613473565b60005b828110156136bc57848901358255600182019150602085019450602081019050613697565b868310156136d957848901356136d5601f8916826135e5565b8355505b6001600288020188555050505b50505050505050565b6136f88261285e565b67ffffffffffffffff81111561371157613710612ac2565b5b61371b8254612fe7565b613726828285613592565b600060209050601f8311600181146137595760008415613747578287015190505b6137518582613603565b8655506137b9565b601f19841661376786613473565b60005b8281101561378f5784890151825560018201915060208501945060208101905061376a565b868310156137ac57848901516137a8601f8916826135e5565b8355505b6001600288020188555050505b505050505050565b600081519050919050565b600082825260208201905092915050565b60006137e8826137c1565b6137f281856137cc565b935061380281856020860161287a565b61380b816128a4565b840191505092915050565b600060808201905061382b60008301876129a5565b61383860208301866129a5565b6138456040830185612a3b565b818103606083015261385781846137dd565b905095945050505050565b600081519050613871816127cf565b92915050565b60006020828403121561388d5761388c612799565b5b600061389b84828501613862565b91505092915050565b600081905092915050565b60006138ba8261285e565b6138c481856138a4565b93506138d481856020860161287a565b80840191505092915050565b60006138ec82856138af565b91506138f882846138af565b91508190509392505050565b600061390f82612910565b915061391a83612910565b9250828203905081811115613932576139316130e1565b5b92915050565b7f4e487b7100000000000000000000000000000000000000000000000000000000600052603160045260246000fd5b7f4e487b7100000000000000000000000000000000000000000000000000000000600052601260045260246000fdfea264697066735822122021ee661293cb3016721c21c96d85a4851d86dc163da39427926d0c8cae7f338764736f6c63430008140033",
  "linkReferences": {},
  "deployedLinkReferences": {}
}