{
  "_format": "hh-sol-artifact-1",
  "contractName": "AssetDispenserNftsPrivateCollection",
  "sourceName": "contracts/PrivateNftContract.sol",
  "abi": [
    {
      "inputs": [
        {
          "internalType": "address",
          "name": "initialOwner",
          "type": "address"
        }
      ],
      "stateMutability": "nonpayable",
      "type": "constructor"
    },
    {
      "inputs": [],
      "name": "ERC721EnumerableForbiddenBatchMint",
      "type": "error"
    },
    {
      "inputs": [
        {
          "internalType": "address",
          "name": "sender",
          "type": "address"
        },
        {
          "internalType": "uint256",
          "name": "tokenId",
          "type": "uint256"
        },
        {
          "internalType": "address",
          "name": "owner",
          "type": "address"
        }
      ],
      "name": "ERC721IncorrectOwner",
      "type": "error"
    },
    {
      "inputs": [
        {
          "internalType": "address",
          "name": "operator",
          "type": "address"
        },
        {
          "internalType": "uint256",
          "name": "tokenId",
          "type": "uint256"
        }
      ],
      "name": "ERC721InsufficientApproval",
      "type": "error"
    },
    {
      "inputs": [
        {
          "internalType": "address",
          "name": "approver",
          "type": "address"
        }
      ],
      "name": "ERC721InvalidApprover",
      "type": "error"
    },
    {
      "inputs": [
        {
          "internalType": "address",
          "name": "operator",
          "type": "address"
        }
      ],
      "name": "ERC721InvalidOperator",
      "type": "error"
    },
    {
      "inputs": [
        {
          "internalType": "address",
          "name": "owner",
          "type": "address"
        }
      ],
      "name": "ERC721InvalidOwner",
      "type": "error"
    },
    {
      "inputs": [
        {
          "internalType": "address",
          "name": "receiver",
          "type": "address"
        }
      ],
      "name": "ERC721InvalidReceiver",
      "type": "error"
    },
    {
      "inputs": [
        {
          "internalType": "address",
          "name": "sender",
          "type": "address"
        }
      ],
      "name": "ERC721InvalidSender",
      "type": "error"
    },
    {
      "inputs": [
        {
          "internalType": "uint256",
          "name": "tokenId",
          "type": "uint256"
        }
      ],
      "name": "ERC721NonexistentToken",
      "type": "error"
    },
    {
      "inputs": [
        {
          "internalType": "address",
          "name": "owner",
          "type": "address"
        },
        {
          "internalType": "uint256",
          "name": "index",
          "type": "uint256"
        }
      ],
      "name": "ERC721OutOfBoundsIndex",
      "type": "error"
    },
    {
      "inputs": [
        {
          "internalType": "address",
          "name": "owner",
          "type": "address"
        }
      ],
      "name": "OwnableInvalidOwner",
      "type": "error"
    },
    {
      "inputs": [
        {
          "internalType": "address",
          "name": "account",
          "type": "address"
        }
      ],
      "name": "OwnableUnauthorizedAccount",
      "type": "error"
    },
    {
      "anonymous": false,
      "inputs": [
        {
          "indexed": true,
          "internalType": "address",
          "name": "owner",
          "type": "address"
        },
        {
          "indexed": true,
          "internalType": "address",
          "name": "approved",
          "type": "address"
        },
        {
          "indexed": true,
          "internalType": "uint256",
          "name": "tokenId",
          "type": "uint256"
        }
      ],
      "name": "Approval",
      "type": "event"
    },
    {
      "anonymous": false,
      "inputs": [
        {
          "indexed": true,
          "internalType": "address",
          "name": "owner",
          "type": "address"
        },
        {
          "indexed": true,
          "internalType": "address",
          "name": "operator",
          "type": "address"
        },
        {
          "indexed": false,
          "internalType": "bool",
          "name": "approved",
          "type": "bool"
        }
      ],
      "name": "ApprovalForAll",
      "type": "event"
    },
    {
      "anonymous": false,
      "inputs": [
        {
          "indexed": false,
          "internalType": "uint256",
          "name": "_fromTokenId",
          "type": "uint256"
        },
        {
          "indexed": false,
          "internalType": "uint256",
          "name": "_toTokenId",
          "type": "uint256"
        }
      ],
      "name": "BatchMetadataUpdate",
      "type": "event"
    },
    {
      "anonymous": false,
      "inputs": [
        {
          "indexed": false,
          "internalType": "uint256",
          "name": "_tokenId",
          "type": "uint256"
        }
      ],
      "name": "MetadataUpdate",
      "type": "event"
    },
    {
      "anonymous": false,
      "inputs": [
        {
          "indexed": true,
          "internalType": "address",
          "name": "previousOwner",
          "type": "address"
        },
        {
          "indexed": true,
          "internalType": "address",
          "name": "newOwner",
          "type": "address"
        }
      ],
      "name": "OwnershipTransferred",
      "type": "event"
    },
    {
      "anonymous": false,
      "inputs": [
        {
          "indexed": true,
          "internalType": "address",
          "name": "from",
          "type": "address"
        },
        {
          "indexed": true,
          "internalType": "address",
          "name": "to",
          "type": "address"
        },
        {
          "indexed": true,
          "internalType": "uint256",
          "name": "tokenId",
          "type": "uint256"
        }
      ],
      "name": "Transfer",
      "type": "event"
    },
    {
      "inputs": [
        {
          "internalType": "address",
          "name": "to",
          "type": "address"
        },
        {
          "internalType": "uint256",
          "name": "tokenId",
          "type": "uint256"
        }
      ],
      "name": "approve",
      "outputs": [],
      "stateMutability": "nonpayable",
      "type": "function"
    },
    {
      "inputs": [
        {
          "internalType": "address",
          "name": "owner",
          "type": "address"
        }
      ],
      "name": "balanceOf",
      "outputs": [
        {
          "internalType": "uint256",
          "name": "",
          "type": "uint256"
        }
      ],
      "stateMutability": "view",
      "type": "function"
    },
    {
      "inputs": [
        {
          "internalType": "bool",
          "name": "_prepaidMintOpen",
          "type": "bool"
        }
      ],
      "name": "editMintingOptions",
      "outputs": [],
      "stateMutability": "nonpayable",
      "type": "function"
    },
    {
      "inputs": [
        {
          "internalType": "uint256",
          "name": "tokenId",
          "type": "uint256"
        }
      ],
      "name": "getApproved",
      "outputs": [
        {
          "internalType": "address",
          "name": "",
          "type": "address"
        }
      ],
      "stateMutability": "view",
      "type": "function"
    },
    {
      "inputs": [
        {
          "internalType": "address",
          "name": "owner",
          "type": "address"
        },
        {
          "internalType": "address",
          "name": "operator",
          "type": "address"
        }
      ],
      "name": "isApprovedForAll",
      "outputs": [
        {
          "internalType": "bool",
          "name": "",
          "type": "bool"
        }
      ],
      "stateMutability": "view",
      "type": "function"
    },
    {
      "inputs": [],
      "name": "name",
      "outputs": [
        {
          "internalType": "string",
          "name": "",
          "type": "string"
        }
      ],
      "stateMutability": "view",
      "type": "function"
    },
    {
      "inputs": [],
      "name": "owner",
      "outputs": [
        {
          "internalType": "address",
          "name": "",
          "type": "address"
        }
      ],
      "stateMutability": "view",
      "type": "function"
    },
    {
      "inputs": [
        {
          "internalType": "uint256",
          "name": "tokenId",
          "type": "uint256"
        }
      ],
      "name": "ownerOf",
      "outputs": [
        {
          "internalType": "address",
          "name": "",
          "type": "address"
        }
      ],
      "stateMutability": "view",
      "type": "function"
    },
    {
      "inputs": [
        {
          "internalType": "address",
          "name": "",
          "type": "address"
        }
      ],
      "name": "prepaidList",
      "outputs": [
        {
          "internalType": "bool",
          "name": "",
          "type": "bool"
        }
      ],
      "stateMutability": "view",
      "type": "function"
    },
    {
      "inputs": [
        {
          "internalType": "string",
          "name": "uri",
          "type": "string"
        }
      ],
      "name": "prepaidMint",
      "outputs": [],
      "stateMutability": "payable",
      "type": "function"
    },
    {
      "inputs": [],
      "name": "prepaidMintOpen",
      "outputs": [
        {
          "internalType": "bool",
          "name": "",
          "type": "bool"
        }
      ],
      "stateMutability": "view",
      "type": "function"
    },
    {
      "inputs": [],
      "name": "renounceOwnership",
      "outputs": [],
      "stateMutability": "nonpayable",
      "type": "function"
    },
    {
      "inputs": [
        {
          "internalType": "address",
          "name": "to",
          "type": "address"
        },
        {
          "internalType": "string",
          "name": "uri",
          "type": "string"
        }
      ],
      "name": "safeMint",
      "outputs": [],
      "stateMutability": "nonpayable",
      "type": "function"
    },
    {
      "inputs": [
        {
          "internalType": "address",
          "name": "from",
          "type": "address"
        },
        {
          "internalType": "address",
          "name": "to",
          "type": "address"
        },
        {
          "internalType": "uint256",
          "name": "tokenId",
          "type": "uint256"
        }
      ],
      "name": "safeTransferFrom",
      "outputs": [],
      "stateMutability": "nonpayable",
      "type": "function"
    },
    {
      "inputs": [
        {
          "internalType": "address",
          "name": "from",
          "type": "address"
        },
        {
          "internalType": "address",
          "name": "to",
          "type": "address"
        },
        {
          "internalType": "uint256",
          "name": "tokenId",
          "type": "uint256"
        },
        {
          "internalType": "bytes",
          "name": "data",
          "type": "bytes"
        }
      ],
      "name": "safeTransferFrom",
      "outputs": [],
      "stateMutability": "nonpayable",
      "type": "function"
    },
    {
      "inputs": [
        {
          "internalType": "address",
          "name": "operator",
          "type": "address"
        },
        {
          "internalType": "bool",
          "name": "approved",
          "type": "bool"
        }
      ],
      "name": "setApprovalForAll",
      "outputs": [],
      "stateMutability": "nonpayable",
      "type": "function"
    },
    {
      "inputs": [
        {
          "internalType": "string",
          "name": "baseTokenUri_",
          "type": "string"
        }
      ],
      "name": "setBaseTokenUri",
      "outputs": [],
      "stateMutability": "nonpayable",
      "type": "function"
    },
    {
      "inputs": [
        {
          "internalType": "address[]",
          "name": "addresses",
          "type": "address[]"
        }
      ],
      "name": "setPrepaidList",
      "outputs": [],
      "stateMutability": "nonpayable",
      "type": "function"
    },
    {
      "inputs": [
        {
          "internalType": "bytes4",
          "name": "interfaceId",
          "type": "bytes4"
        }
      ],
      "name": "supportsInterface",
      "outputs": [
        {
          "internalType": "bool",
          "name": "",
          "type": "bool"
        }
      ],
      "stateMutability": "view",
      "type": "function"
    },
    {
      "inputs": [],
      "name": "symbol",
      "outputs": [
        {
          "internalType": "string",
          "name": "",
          "type": "string"
        }
      ],
      "stateMutability": "view",
      "type": "function"
    },
    {
      "inputs": [
        {
          "internalType": "uint256",
          "name": "index",
          "type": "uint256"
        }
      ],
      "name": "tokenByIndex",
      "outputs": [
        {
          "internalType": "uint256",
          "name": "",
          "type": "uint256"
        }
      ],
      "stateMutability": "view",
      "type": "function"
    },
    {
      "inputs": [
        {
          "internalType": "address",
          "name": "owner",
          "type": "address"
        },
        {
          "internalType": "uint256",
          "name": "index",
          "type": "uint256"
        }
      ],
      "name": "tokenOfOwnerByIndex",
      "outputs": [
        {
          "internalType": "uint256",
          "name": "",
          "type": "uint256"
        }
      ],
      "stateMutability": "view",
      "type": "function"
    },
    {
      "inputs": [
        {
          "internalType": "uint256",
          "name": "tokenId",
          "type": "uint256"
        }
      ],
      "name": "tokenURI",
      "outputs": [
        {
          "internalType": "string",
          "name": "",
          "type": "string"
        }
      ],
      "stateMutability": "view",
      "type": "function"
    },
    {
      "inputs": [],
      "name": "totalSupply",
      "outputs": [
        {
          "internalType": "uint256",
          "name": "",
          "type": "uint256"
        }
      ],
      "stateMutability": "view",
      "type": "function"
    },
    {
      "inputs": [
        {
          "internalType": "address",
          "name": "from",
          "type": "address"
        },
        {
          "internalType": "address",
          "name": "to",
          "type": "address"
        },
        {
          "internalType": "uint256",
          "name": "tokenId",
          "type": "uint256"
        }
      ],
      "name": "transferFrom",
      "outputs": [],
      "stateMutability": "nonpayable",
      "type": "function"
    },
    {
      "inputs": [
        {
          "internalType": "address",
          "name": "newOwner",
          "type": "address"
        }
      ],
      "name": "transferOwnership",
      "outputs": [],
      "stateMutability": "nonpayable",
      "type": "function"
    }
  ],
  "bytecode": "0x60806040526001600e60006101000a81548160ff0219169083151502179055503480156200002c57600080fd5b5060405162003c3838038062003c38833981810160405281019062000052919062000287565b8060405180606001604052806023815260200162003c15602391396040518060400160405280600481526020017f41445043000000000000000000000000000000000000000000000000000000008152508160009081620000b4919062000533565b508060019081620000c6919062000533565b505050600073ffffffffffffffffffffffffffffffffffffffff168173ffffffffffffffffffffffffffffffffffffffff16036200013e5760006040517f1e4fbdf70000000000000000000000000000000000000000000000000000000081526004016200013591906200062b565b60405180910390fd5b6200014f816200015760201b60201c565b505062000648565b6000600b60009054906101000a900473ffffffffffffffffffffffffffffffffffffffff16905081600b60006101000a81548173ffffffffffffffffffffffffffffffffffffffff021916908373ffffffffffffffffffffffffffffffffffffffff1602179055508173ffffffffffffffffffffffffffffffffffffffff168173ffffffffffffffffffffffffffffffffffffffff167f8be0079c531659141344cd1fd0a4f28419497f9722a3daafe3b4186f6b6457e060405160405180910390a35050565b600080fd5b600073ffffffffffffffffffffffffffffffffffffffff82169050919050565b60006200024f8262000222565b9050919050565b620002618162000242565b81146200026d57600080fd5b50565b600081519050620002818162000256565b92915050565b600060208284031215620002a0576200029f6200021d565b5b6000620002b08482850162000270565b91505092915050565b600081519050919050565b7f4e487b7100000000000000000000000000000000000000000000000000000000600052604160045260246000fd5b7f4e487b7100000000000000000000000000000000000000000000000000000000600052602260045260246000fd5b600060028204905060018216806200033b57607f821691505b602082108103620003515762000350620002f3565b5b50919050565b60008190508160005260206000209050919050565b60006020601f8301049050919050565b600082821b905092915050565b600060088302620003bb7fffffffffffffffffffffffffffffffffffffffffffffffffffffffffffffffff826200037c565b620003c786836200037c565b95508019841693508086168417925050509392505050565b6000819050919050565b6000819050919050565b6000620004146200040e6200040884620003df565b620003e9565b620003df565b9050919050565b6000819050919050565b6200043083620003f3565b620004486200043f826200041b565b84845462000389565b825550505050565b600090565b6200045f62000450565b6200046c81848462000425565b505050565b5b8181101562000494576200048860008262000455565b60018101905062000472565b5050565b601f821115620004e357620004ad8162000357565b620004b8846200036c565b81016020851015620004c8578190505b620004e0620004d7856200036c565b83018262000471565b50505b505050565b600082821c905092915050565b60006200050860001984600802620004e8565b1980831691505092915050565b6000620005238383620004f5565b9150826002028217905092915050565b6200053e82620002b9565b67ffffffffffffffff8111156200055a5762000559620002c4565b5b62000566825462000322565b6200057382828562000498565b600060209050601f831160018114620005ab576000841562000596578287015190505b620005a2858262000515565b86555062000612565b601f198416620005bb8662000357565b60005b82811015620005e557848901518255600182019150602085019450602081019050620005be565b8683101562000605578489015162000601601f891682620004f5565b8355505b6001600288020188555050505b505050505050565b620006258162000242565b82525050565b60006020820190506200064260008301846200061a565b92915050565b6135bd80620006586000396000f3fe6080604052600436106101815760003560e01c80638da5cb5b116100d1578063c87b56dd1161008a578063e4af4ef511610064578063e4af4ef514610590578063e985e9c5146105cd578063f2fde38b1461060a578063fda252c81461063357610181565b8063c87b56dd14610501578063d204c45e1461053e578063da1e48b41461056757610181565b80638da5cb5b1461040757806395652cfa1461043257806395d89b411461045b578063a22cb46514610486578063a46b5e40146104af578063b88d4fde146104d857610181565b80632f745c591161013e578063634f4aff11610118578063634f4aff1461034b5780636352211e1461037657806370a08231146103b3578063715018a6146103f057610181565b80632f745c59146102a857806342842e0e146102e55780634f6ccce71461030e57610181565b806301ffc9a71461018657806306fdde03146101c3578063081812fc146101ee578063095ea7b31461022b57806318160ddd1461025457806323b872dd1461027f575b600080fd5b34801561019257600080fd5b506101ad60048036038101906101a891906125e4565b61064f565b6040516101ba919061262c565b60405180910390f35b3480156101cf57600080fd5b506101d8610661565b6040516101e591906126d7565b60405180910390f35b3480156101fa57600080fd5b506102156004803603810190610210919061272f565b6106f3565b604051610222919061279d565b60405180910390f35b34801561023757600080fd5b50610252600480360381019061024d91906127e4565b61070f565b005b34801561026057600080fd5b50610269610725565b6040516102769190612833565b60405180910390f35b34801561028b57600080fd5b506102a660048036038101906102a1919061284e565b610732565b005b3480156102b457600080fd5b506102cf60048036038101906102ca91906127e4565b610834565b6040516102dc9190612833565b60405180910390f35b3480156102f157600080fd5b5061030c6004803603810190610307919061284e565b6108dd565b005b34801561031a57600080fd5b506103356004803603810190610330919061272f565b6108fd565b6040516103429190612833565b60405180910390f35b34801561035757600080fd5b50610360610973565b60405161036d919061262c565b60405180910390f35b34801561038257600080fd5b5061039d6004803603810190610398919061272f565b610986565b6040516103aa919061279d565b60405180910390f35b3480156103bf57600080fd5b506103da60048036038101906103d591906128a1565b610998565b6040516103e79190612833565b60405180910390f35b3480156103fc57600080fd5b50610405610a52565b005b34801561041357600080fd5b5061041c610a66565b604051610429919061279d565b60405180910390f35b34801561043e57600080fd5b5061045960048036038101906104549190612933565b610a90565b005b34801561046757600080fd5b50610470610aae565b60405161047d91906126d7565b60405180910390f35b34801561049257600080fd5b506104ad60048036038101906104a891906129ac565b610b40565b005b3480156104bb57600080fd5b506104d660048036038101906104d191906129ec565b610b56565b005b3480156104e457600080fd5b506104ff60048036038101906104fa9190612b49565b610b7b565b005b34801561050d57600080fd5b506105286004803603810190610523919061272f565b610b98565b60405161053591906126d7565b60405180910390f35b34801561054a57600080fd5b5061056560048036038101906105609190612c6d565b610baa565b005b34801561057357600080fd5b5061058e60048036038101906105899190612d1f565b610be6565b005b34801561059c57600080fd5b506105b760048036038101906105b291906128a1565b610c93565b6040516105c4919061262c565b60405180910390f35b3480156105d957600080fd5b506105f460048036038101906105ef9190612d6c565b610cb3565b604051610601919061262c565b60405180910390f35b34801561061657600080fd5b50610631600480360381019061062c91906128a1565b610d47565b005b61064d60048036038101906106489190612dac565b610dcd565b005b600061065a82610ee2565b9050919050565b60606000805461067090612e24565b80601f016020809104026020016040519081016040528092919081815260200182805461069c90612e24565b80156106e95780601f106106be576101008083540402835291602001916106e9565b820191906000526020600020905b8154815290600101906020018083116106cc57829003601f168201915b5050505050905090565b60006106fe82610f43565b5061070882610fcb565b9050919050565b610721828261071c611008565b611010565b5050565b6000600880549050905090565b600073ffffffffffffffffffffffffffffffffffffffff168273ffffffffffffffffffffffffffffffffffffffff16036107a45760006040517f64a0ae9200000000000000000000000000000000000000000000000000000000815260040161079b919061279d565b60405180910390fd5b60006107b883836107b3611008565b611022565b90508373ffffffffffffffffffffffffffffffffffffffff168173ffffffffffffffffffffffffffffffffffffffff161461082e578382826040517f64283d7b00000000000000000000000000000000000000000000000000000000815260040161082593929190612e55565b60405180910390fd5b50505050565b600061083f83610998565b82106108845782826040517fa57d13dc00000000000000000000000000000000000000000000000000000000815260040161087b929190612e8c565b60405180910390fd5b600660008473ffffffffffffffffffffffffffffffffffffffff1673ffffffffffffffffffffffffffffffffffffffff168152602001908152602001600020600083815260200190815260200160002054905092915050565b6108f883838360405180602001604052806000815250610b7b565b505050565b6000610907610725565b821061094d576000826040517fa57d13dc000000000000000000000000000000000000000000000000000000008152600401610944929190612e8c565b60405180910390fd5b6008828154811061096157610960612eb5565b5b90600052602060002001549050919050565b600e60009054906101000a900460ff1681565b600061099182610f43565b9050919050565b60008073ffffffffffffffffffffffffffffffffffffffff168273ffffffffffffffffffffffffffffffffffffffff1603610a0b5760006040517f89c62b64000000000000000000000000000000000000000000000000000000008152600401610a02919061279d565b60405180910390fd5b600360008373ffffffffffffffffffffffffffffffffffffffff1673ffffffffffffffffffffffffffffffffffffffff168152602001908152602001600020549050919050565b610a5a611038565b610a6460006110bf565b565b6000600b60009054906101000a900473ffffffffffffffffffffffffffffffffffffffff16905090565b610a98611038565b8181600d9182610aa992919061309b565b505050565b606060018054610abd90612e24565b80601f0160208091040260200160405190810160405280929190818152602001828054610ae990612e24565b8015610b365780601f10610b0b57610100808354040283529160200191610b36565b820191906000526020600020905b815481529060010190602001808311610b1957829003601f168201915b5050505050905090565b610b52610b4b611008565b8383611185565b5050565b610b5e611038565b80600e60006101000a81548160ff02191690831515021790555050565b610b86848484610732565b610b92848484846112f4565b50505050565b6060610ba3826114ab565b9050919050565b610bb2611038565b6000600c6000815480929190610bc79061319a565b919050559050610bd783826115be565b610be181836115dc565b505050565b610bee611038565b60005b82829050811015610c8e576001600f6000858585818110610c1557610c14612eb5565b5b9050602002016020810190610c2a91906128a1565b73ffffffffffffffffffffffffffffffffffffffff1673ffffffffffffffffffffffffffffffffffffffff16815260200190815260200160002060006101000a81548160ff0219169083151502179055508080610c869061319a565b915050610bf1565b505050565b600f6020528060005260406000206000915054906101000a900460ff1681565b6000600560008473ffffffffffffffffffffffffffffffffffffffff1673ffffffffffffffffffffffffffffffffffffffff16815260200190815260200160002060008373ffffffffffffffffffffffffffffffffffffffff1673ffffffffffffffffffffffffffffffffffffffff16815260200190815260200160002060009054906101000a900460ff16905092915050565b610d4f611038565b600073ffffffffffffffffffffffffffffffffffffffff168173ffffffffffffffffffffffffffffffffffffffff1603610dc15760006040517f1e4fbdf7000000000000000000000000000000000000000000000000000000008152600401610db8919061279d565b60405180910390fd5b610dca816110bf565b50565b60011515600e60009054906101000a900460ff16151514610e23576040517f08c379a0000000000000000000000000000000000000000000000000000000008152600401610e1a9061322e565b60405180910390fd5b600f60003373ffffffffffffffffffffffffffffffffffffffff1673ffffffffffffffffffffffffffffffffffffffff16815260200190815260200160002060009054906101000a900460ff16610eaf576040517f08c379a0000000000000000000000000000000000000000000000000000000008152600401610ea6906132c0565b60405180910390fd5b6000600c6000815480929190610ec49061319a565b919050559050610ed433826115be565b610ede81836115dc565b5050565b6000634906490660e01b7bffffffffffffffffffffffffffffffffffffffffffffffffffffffff1916827bffffffffffffffffffffffffffffffffffffffffffffffffffffffff19161480610f3c5750610f3b82611638565b5b9050919050565b600080610f4f836116b2565b9050600073ffffffffffffffffffffffffffffffffffffffff168173ffffffffffffffffffffffffffffffffffffffff1603610fc257826040517f7e273289000000000000000000000000000000000000000000000000000000008152600401610fb99190612833565b60405180910390fd5b80915050919050565b60006004600083815260200190815260200160002060009054906101000a900473ffffffffffffffffffffffffffffffffffffffff169050919050565b600033905090565b61101d83838360016116ef565b505050565b600061102f8484846118b4565b90509392505050565b611040611008565b73ffffffffffffffffffffffffffffffffffffffff1661105e610a66565b73ffffffffffffffffffffffffffffffffffffffff16146110bd57611081611008565b6040517f118cdaa70000000000000000000000000000000000000000000000000000000081526004016110b4919061279d565b60405180910390fd5b565b6000600b60009054906101000a900473ffffffffffffffffffffffffffffffffffffffff16905081600b60006101000a81548173ffffffffffffffffffffffffffffffffffffffff021916908373ffffffffffffffffffffffffffffffffffffffff1602179055508173ffffffffffffffffffffffffffffffffffffffff168173ffffffffffffffffffffffffffffffffffffffff167f8be0079c531659141344cd1fd0a4f28419497f9722a3daafe3b4186f6b6457e060405160405180910390a35050565b600073ffffffffffffffffffffffffffffffffffffffff168273ffffffffffffffffffffffffffffffffffffffff16036111f657816040517f5b08ba180000000000000000000000000000000000000000000000000000000081526004016111ed919061279d565b60405180910390fd5b80600560008573ffffffffffffffffffffffffffffffffffffffff1673ffffffffffffffffffffffffffffffffffffffff16815260200190815260200160002060008473ffffffffffffffffffffffffffffffffffffffff1673ffffffffffffffffffffffffffffffffffffffff16815260200190815260200160002060006101000a81548160ff0219169083151502179055508173ffffffffffffffffffffffffffffffffffffffff168373ffffffffffffffffffffffffffffffffffffffff167f17307eab39ab6107e8899845ad3d59bd9653f200f220920489ca2b5937696c31836040516112e7919061262c565b60405180910390a3505050565b60008373ffffffffffffffffffffffffffffffffffffffff163b11156114a5578273ffffffffffffffffffffffffffffffffffffffff1663150b7a02611338611008565b8685856040518563ffffffff1660e01b815260040161135a9493929190613335565b6020604051808303816000875af192505050801561139657506040513d601f19601f820116820180604052508101906113939190613396565b60015b61141a573d80600081146113c6576040519150601f19603f3d011682016040523d82523d6000602084013e6113cb565b606091505b50600081510361141257836040517f64a0ae92000000000000000000000000000000000000000000000000000000008152600401611409919061279d565b60405180910390fd5b805181602001fd5b63150b7a0260e01b7bffffffffffffffffffffffffffffffffffffffffffffffffffffffff1916817bffffffffffffffffffffffffffffffffffffffffffffffffffffffff1916146114a357836040517f64a0ae9200000000000000000000000000000000000000000000000000000000815260040161149a919061279d565b60405180910390fd5b505b50505050565b60606114b682610f43565b506000600a600084815260200190815260200160002080546114d790612e24565b80601f016020809104026020016040519081016040528092919081815260200182805461150390612e24565b80156115505780601f1061152557610100808354040283529160200191611550565b820191906000526020600020905b81548152906001019060200180831161153357829003601f168201915b5050505050905060006115616119d1565b905060008151036115765781925050506115b9565b6000825111156115ab5780826040516020016115939291906133ff565b604051602081830303815290604052925050506115b9565b6115b4846119e8565b925050505b919050565b6115d8828260405180602001604052806000815250611a51565b5050565b80600a600084815260200190815260200160002090816115fc9190613423565b507ff8e1a15aba9398e019f0b49df1a4fde98ee17ae345cb5f6b5e2c27f5033e8ce78260405161162c9190612833565b60405180910390a15050565b60007f780e9d63000000000000000000000000000000000000000000000000000000007bffffffffffffffffffffffffffffffffffffffffffffffffffffffff1916827bffffffffffffffffffffffffffffffffffffffffffffffffffffffff191614806116ab57506116aa82611a6d565b5b9050919050565b60006002600083815260200190815260200160002060009054906101000a900473ffffffffffffffffffffffffffffffffffffffff169050919050565b80806117285750600073ffffffffffffffffffffffffffffffffffffffff168273ffffffffffffffffffffffffffffffffffffffff1614155b1561185c57600061173884610f43565b9050600073ffffffffffffffffffffffffffffffffffffffff168373ffffffffffffffffffffffffffffffffffffffff16141580156117a357508273ffffffffffffffffffffffffffffffffffffffff168173ffffffffffffffffffffffffffffffffffffffff1614155b80156117b657506117b48184610cb3565b155b156117f857826040517fa9fbf51f0000000000000000000000000000000000000000000000000000000081526004016117ef919061279d565b60405180910390fd5b811561185a57838573ffffffffffffffffffffffffffffffffffffffff168273ffffffffffffffffffffffffffffffffffffffff167f8c5be1e5ebec7d5bd14f71427d1e84f3dd0314c0f7b2291e5b200ac8c7c3b92560405160405180910390a45b505b836004600085815260200190815260200160002060006101000a81548173ffffffffffffffffffffffffffffffffffffffff021916908373ffffffffffffffffffffffffffffffffffffffff16021790555050505050565b6000806118c2858585611b4f565b9050600073ffffffffffffffffffffffffffffffffffffffff168173ffffffffffffffffffffffffffffffffffffffff16036119065761190184611d69565b611945565b8473ffffffffffffffffffffffffffffffffffffffff168173ffffffffffffffffffffffffffffffffffffffff1614611944576119438185611db2565b5b5b600073ffffffffffffffffffffffffffffffffffffffff168573ffffffffffffffffffffffffffffffffffffffff16036119875761198284611f13565b6119c6565b8473ffffffffffffffffffffffffffffffffffffffff168173ffffffffffffffffffffffffffffffffffffffff16146119c5576119c48585611fe4565b5b5b809150509392505050565b606060405180602001604052806000815250905090565b60606119f382610f43565b5060006119fe6119d1565b90506000815111611a1e5760405180602001604052806000815250611a49565b80611a288461206f565b604051602001611a399291906133ff565b6040516020818303038152906040525b915050919050565b611a5b838361213d565b611a6860008484846112f4565b505050565b60007f80ac58cd000000000000000000000000000000000000000000000000000000007bffffffffffffffffffffffffffffffffffffffffffffffffffffffff1916827bffffffffffffffffffffffffffffffffffffffffffffffffffffffff19161480611b3857507f5b5e139f000000000000000000000000000000000000000000000000000000007bffffffffffffffffffffffffffffffffffffffffffffffffffffffff1916827bffffffffffffffffffffffffffffffffffffffffffffffffffffffff1916145b80611b485750611b4782612236565b5b9050919050565b600080611b5b846116b2565b9050600073ffffffffffffffffffffffffffffffffffffffff168373ffffffffffffffffffffffffffffffffffffffff1614611b9d57611b9c8184866122a0565b5b600073ffffffffffffffffffffffffffffffffffffffff168173ffffffffffffffffffffffffffffffffffffffff1614611c2e57611bdf6000856000806116ef565b6001600360008373ffffffffffffffffffffffffffffffffffffffff1673ffffffffffffffffffffffffffffffffffffffff168152602001908152602001600020600082825403925050819055505b600073ffffffffffffffffffffffffffffffffffffffff168573ffffffffffffffffffffffffffffffffffffffff1614611cb1576001600360008773ffffffffffffffffffffffffffffffffffffffff1673ffffffffffffffffffffffffffffffffffffffff168152602001908152602001600020600082825401925050819055505b846002600086815260200190815260200160002060006101000a81548173ffffffffffffffffffffffffffffffffffffffff021916908373ffffffffffffffffffffffffffffffffffffffff160217905550838573ffffffffffffffffffffffffffffffffffffffff168273ffffffffffffffffffffffffffffffffffffffff167fddf252ad1be2c89b69c2b068fc378daa952ba7f163c4a11628f55a4df523b3ef60405160405180910390a4809150509392505050565b6008805490506009600083815260200190815260200160002081905550600881908060018154018082558091505060019003906000526020600020016000909190919091505550565b6000611dbd83610998565b9050600060076000848152602001908152602001600020549050818114611ea2576000600660008673ffffffffffffffffffffffffffffffffffffffff1673ffffffffffffffffffffffffffffffffffffffff168152602001908152602001600020600084815260200190815260200160002054905080600660008773ffffffffffffffffffffffffffffffffffffffff1673ffffffffffffffffffffffffffffffffffffffff168152602001908152602001600020600084815260200190815260200160002081905550816007600083815260200190815260200160002081905550505b6007600084815260200190815260200160002060009055600660008573ffffffffffffffffffffffffffffffffffffffff1673ffffffffffffffffffffffffffffffffffffffff16815260200190815260200160002060008381526020019081526020016000206000905550505050565b60006001600880549050611f2791906134f5565b9050600060096000848152602001908152602001600020549050600060088381548110611f5757611f56612eb5565b5b906000526020600020015490508060088381548110611f7957611f78612eb5565b5b906000526020600020018190555081600960008381526020019081526020016000208190555060096000858152602001908152602001600020600090556008805480611fc857611fc7613529565b5b6001900381819060005260206000200160009055905550505050565b60006001611ff184610998565b611ffb91906134f5565b905081600660008573ffffffffffffffffffffffffffffffffffffffff1673ffffffffffffffffffffffffffffffffffffffff168152602001908152602001600020600083815260200190815260200160002081905550806007600084815260200190815260200160002081905550505050565b60606000600161207e84612364565b01905060008167ffffffffffffffff81111561209d5761209c612a1e565b5b6040519080825280601f01601f1916602001820160405280156120cf5781602001600182028036833780820191505090505b509050600082602001820190505b600115612132578080600190039150507f3031323334353637383961626364656600000000000000000000000000000000600a86061a8153600a858161212657612125613558565b5b049450600085036120dd575b819350505050919050565b600073ffffffffffffffffffffffffffffffffffffffff168273ffffffffffffffffffffffffffffffffffffffff16036121af5760006040517f64a0ae920000000000000000000000000000000000000000000000000000000081526004016121a6919061279d565b60405180910390fd5b60006121bd83836000611022565b9050600073ffffffffffffffffffffffffffffffffffffffff168173ffffffffffffffffffffffffffffffffffffffff16146122315760006040517f73c6ac6e000000000000000000000000000000000000000000000000000000008152600401612228919061279d565b60405180910390fd5b505050565b60007f01ffc9a7000000000000000000000000000000000000000000000000000000007bffffffffffffffffffffffffffffffffffffffffffffffffffffffff1916827bffffffffffffffffffffffffffffffffffffffffffffffffffffffff1916149050919050565b6122ab8383836124b7565b61235f57600073ffffffffffffffffffffffffffffffffffffffff168373ffffffffffffffffffffffffffffffffffffffff160361232057806040517f7e2732890000000000000000000000000000000000000000000000000000000081526004016123179190612833565b60405180910390fd5b81816040517f177e802f000000000000000000000000000000000000000000000000000000008152600401612356929190612e8c565b60405180910390fd5b505050565b600080600090507a184f03e93ff9f4daa797ed6e38ed64bf6a1f01000000000000000083106123c2577a184f03e93ff9f4daa797ed6e38ed64bf6a1f01000000000000000083816123b8576123b7613558565b5b0492506040810190505b6d04ee2d6d415b85acef810000000083106123ff576d04ee2d6d415b85acef810000000083816123f5576123f4613558565b5b0492506020810190505b662386f26fc10000831061242e57662386f26fc10000838161242457612423613558565b5b0492506010810190505b6305f5e1008310612457576305f5e100838161244d5761244c613558565b5b0492506008810190505b612710831061247c57612710838161247257612471613558565b5b0492506004810190505b6064831061249f576064838161249557612494613558565b5b0492506002810190505b600a83106124ae576001810190505b80915050919050565b60008073ffffffffffffffffffffffffffffffffffffffff168373ffffffffffffffffffffffffffffffffffffffff161415801561256f57508273ffffffffffffffffffffffffffffffffffffffff168473ffffffffffffffffffffffffffffffffffffffff161480612530575061252f8484610cb3565b5b8061256e57508273ffffffffffffffffffffffffffffffffffffffff1661255683610fcb565b73ffffffffffffffffffffffffffffffffffffffff16145b5b90509392505050565b6000604051905090565b600080fd5b600080fd5b60007fffffffff0000000000000000000000000000000000000000000000000000000082169050919050565b6125c18161258c565b81146125cc57600080fd5b50565b6000813590506125de816125b8565b92915050565b6000602082840312156125fa576125f9612582565b5b6000612608848285016125cf565b91505092915050565b60008115159050919050565b61262681612611565b82525050565b6000602082019050612641600083018461261d565b92915050565b600081519050919050565b600082825260208201905092915050565b60005b83811015612681578082015181840152602081019050612666565b60008484015250505050565b6000601f19601f8301169050919050565b60006126a982612647565b6126b38185612652565b93506126c3818560208601612663565b6126cc8161268d565b840191505092915050565b600060208201905081810360008301526126f1818461269e565b905092915050565b6000819050919050565b61270c816126f9565b811461271757600080fd5b50565b60008135905061272981612703565b92915050565b60006020828403121561274557612744612582565b5b60006127538482850161271a565b91505092915050565b600073ffffffffffffffffffffffffffffffffffffffff82169050919050565b60006127878261275c565b9050919050565b6127978161277c565b82525050565b60006020820190506127b2600083018461278e565b92915050565b6127c18161277c565b81146127cc57600080fd5b50565b6000813590506127de816127b8565b92915050565b600080604083850312156127fb576127fa612582565b5b6000612809858286016127cf565b925050602061281a8582860161271a565b9150509250929050565b61282d816126f9565b82525050565b60006020820190506128486000830184612824565b92915050565b60008060006060848603121561286757612866612582565b5b6000612875868287016127cf565b9350506020612886868287016127cf565b92505060406128978682870161271a565b9150509250925092565b6000602082840312156128b7576128b6612582565b5b60006128c5848285016127cf565b91505092915050565b600080fd5b600080fd5b600080fd5b60008083601f8401126128f3576128f26128ce565b5b8235905067ffffffffffffffff8111156129105761290f6128d3565b5b60208301915083600182028301111561292c5761292b6128d8565b5b9250929050565b6000806020838503121561294a57612949612582565b5b600083013567ffffffffffffffff81111561296857612967612587565b5b612974858286016128dd565b92509250509250929050565b61298981612611565b811461299457600080fd5b50565b6000813590506129a681612980565b92915050565b600080604083850312156129c3576129c2612582565b5b60006129d1858286016127cf565b92505060206129e285828601612997565b9150509250929050565b600060208284031215612a0257612a01612582565b5b6000612a1084828501612997565b91505092915050565b600080fd5b7f4e487b7100000000000000000000000000000000000000000000000000000000600052604160045260246000fd5b612a568261268d565b810181811067ffffffffffffffff82111715612a7557612a74612a1e565b5b80604052505050565b6000612a88612578565b9050612a948282612a4d565b919050565b600067ffffffffffffffff821115612ab457612ab3612a1e565b5b612abd8261268d565b9050602081019050919050565b82818337600083830152505050565b6000612aec612ae784612a99565b612a7e565b905082815260208101848484011115612b0857612b07612a19565b5b612b13848285612aca565b509392505050565b600082601f830112612b3057612b2f6128ce565b5b8135612b40848260208601612ad9565b91505092915050565b60008060008060808587031215612b6357612b62612582565b5b6000612b71878288016127cf565b9450506020612b82878288016127cf565b9350506040612b938782880161271a565b925050606085013567ffffffffffffffff811115612bb457612bb3612587565b5b612bc087828801612b1b565b91505092959194509250565b600067ffffffffffffffff821115612be757612be6612a1e565b5b612bf08261268d565b9050602081019050919050565b6000612c10612c0b84612bcc565b612a7e565b905082815260208101848484011115612c2c57612c2b612a19565b5b612c37848285612aca565b509392505050565b600082601f830112612c5457612c536128ce565b5b8135612c64848260208601612bfd565b91505092915050565b60008060408385031215612c8457612c83612582565b5b6000612c92858286016127cf565b925050602083013567ffffffffffffffff811115612cb357612cb2612587565b5b612cbf85828601612c3f565b9150509250929050565b60008083601f840112612cdf57612cde6128ce565b5b8235905067ffffffffffffffff811115612cfc57612cfb6128d3565b5b602083019150836020820283011115612d1857612d176128d8565b5b9250929050565b60008060208385031215612d3657612d35612582565b5b600083013567ffffffffffffffff811115612d5457612d53612587565b5b612d6085828601612cc9565b92509250509250929050565b60008060408385031215612d8357612d82612582565b5b6000612d91858286016127cf565b9250506020612da2858286016127cf565b9150509250929050565b600060208284031215612dc257612dc1612582565b5b600082013567ffffffffffffffff811115612de057612ddf612587565b5b612dec84828501612c3f565b91505092915050565b7f4e487b7100000000000000000000000000000000000000000000000000000000600052602260045260246000fd5b60006002820490506001821680612e3c57607f821691505b602082108103612e4f57612e4e612df5565b5b50919050565b6000606082019050612e6a600083018661278e565b612e776020830185612824565b612e84604083018461278e565b949350505050565b6000604082019050612ea1600083018561278e565b612eae6020830184612824565b9392505050565b7f4e487b7100000000000000000000000000000000000000000000000000000000600052603260045260246000fd5b600082905092915050565b60008190508160005260206000209050919050565b60006020601f8301049050919050565b600082821b905092915050565b600060088302612f517fffffffffffffffffffffffffffffffffffffffffffffffffffffffffffffffff82612f14565b612f5b8683612f14565b95508019841693508086168417925050509392505050565b6000819050919050565b6000612f98612f93612f8e846126f9565b612f73565b6126f9565b9050919050565b6000819050919050565b612fb283612f7d565b612fc6612fbe82612f9f565b848454612f21565b825550505050565b600090565b612fdb612fce565b612fe6818484612fa9565b505050565b5b8181101561300a57612fff600082612fd3565b600181019050612fec565b5050565b601f82111561304f5761302081612eef565b61302984612f04565b81016020851015613038578190505b61304c61304485612f04565b830182612feb565b50505b505050565b600082821c905092915050565b600061307260001984600802613054565b1980831691505092915050565b600061308b8383613061565b9150826002028217905092915050565b6130a58383612ee4565b67ffffffffffffffff8111156130be576130bd612a1e565b5b6130c88254612e24565b6130d382828561300e565b6000601f83116001811461310257600084156130f0578287013590505b6130fa858261307f565b865550613162565b601f19841661311086612eef565b60005b8281101561313857848901358255600182019150602085019450602081019050613113565b868310156131555784890135613151601f891682613061565b8355505b6001600288020188555050505b50505050505050565b7f4e487b7100000000000000000000000000000000000000000000000000000000600052601160045260246000fd5b60006131a5826126f9565b91507fffffffffffffffffffffffffffffffffffffffffffffffffffffffffffffffff82036131d7576131d661316b565b5b600182019050919050565b7f596f757220636f6d70616e79206973206e6f7420617574686f72697a65640000600082015250565b6000613218601e83612652565b9150613223826131e2565b602082019050919050565b600060208201905081810360008301526132478161320b565b9050919050565b7f596f757220636f6d70616e7920616472657373206973206e6f7420617574686f60008201527f72697a6564000000000000000000000000000000000000000000000000000000602082015250565b60006132aa602583612652565b91506132b58261324e565b604082019050919050565b600060208201905081810360008301526132d98161329d565b9050919050565b600081519050919050565b600082825260208201905092915050565b6000613307826132e0565b61331181856132eb565b9350613321818560208601612663565b61332a8161268d565b840191505092915050565b600060808201905061334a600083018761278e565b613357602083018661278e565b6133646040830185612824565b818103606083015261337681846132fc565b905095945050505050565b600081519050613390816125b8565b92915050565b6000602082840312156133ac576133ab612582565b5b60006133ba84828501613381565b91505092915050565b600081905092915050565b60006133d982612647565b6133e381856133c3565b93506133f3818560208601612663565b80840191505092915050565b600061340b82856133ce565b915061341782846133ce565b91508190509392505050565b61342c82612647565b67ffffffffffffffff81111561344557613444612a1e565b5b61344f8254612e24565b61345a82828561300e565b600060209050601f83116001811461348d576000841561347b578287015190505b613485858261307f565b8655506134ed565b601f19841661349b86612eef565b60005b828110156134c35784890151825560018201915060208501945060208101905061349e565b868310156134e057848901516134dc601f891682613061565b8355505b6001600288020188555050505b505050505050565b6000613500826126f9565b915061350b836126f9565b92508282039050818111156135235761352261316b565b5b92915050565b7f4e487b7100000000000000000000000000000000000000000000000000000000600052603160045260246000fd5b7f4e487b7100000000000000000000000000000000000000000000000000000000600052601260045260246000fdfea2646970667358221220ffe498e0afc977cc3d8b86249e8f00642a0ab50279de0b7871161b92a643d39e64736f6c63430008140033417373657444697370656e7365724e66747350726976617465436f6c6c656374696f6e",
  "linkReferences": {},
  "deployedLinkReferences": {}
}