{
  "_format": "hh-sol-artifact-1",
  "contractName": "GameNft",
  "sourceName": "contracts/GameNft.sol",
  "abi": [
    {
      "inputs": [
        {
          "internalType": "address",
          "name": "initialOwner",
          "type": "address"
        }
      ],
      "stateMutability": "nonpayable",
      "type": "constructor"
    },
    {
      "inputs": [],
      "name": "ERC721EnumerableForbiddenBatchMint",
      "type": "error"
    },
    {
      "inputs": [
        {
          "internalType": "address",
          "name": "sender",
          "type": "address"
        },
        {
          "internalType": "uint256",
          "name": "tokenId",
          "type": "uint256"
        },
        {
          "internalType": "address",
          "name": "owner",
          "type": "address"
        }
      ],
      "name": "ERC721IncorrectOwner",
      "type": "error"
    },
    {
      "inputs": [
        {
          "internalType": "address",
          "name": "operator",
          "type": "address"
        },
        {
          "internalType": "uint256",
          "name": "tokenId",
          "type": "uint256"
        }
      ],
      "name": "ERC721InsufficientApproval",
      "type": "error"
    },
    {
      "inputs": [
        {
          "internalType": "address",
          "name": "approver",
          "type": "address"
        }
      ],
      "name": "ERC721InvalidApprover",
      "type": "error"
    },
    {
      "inputs": [
        {
          "internalType": "address",
          "name": "operator",
          "type": "address"
        }
      ],
      "name": "ERC721InvalidOperator",
      "type": "error"
    },
    {
      "inputs": [
        {
          "internalType": "address",
          "name": "owner",
          "type": "address"
        }
      ],
      "name": "ERC721InvalidOwner",
      "type": "error"
    },
    {
      "inputs": [
        {
          "internalType": "address",
          "name": "receiver",
          "type": "address"
        }
      ],
      "name": "ERC721InvalidReceiver",
      "type": "error"
    },
    {
      "inputs": [
        {
          "internalType": "address",
          "name": "sender",
          "type": "address"
        }
      ],
      "name": "ERC721InvalidSender",
      "type": "error"
    },
    {
      "inputs": [
        {
          "internalType": "uint256",
          "name": "tokenId",
          "type": "uint256"
        }
      ],
      "name": "ERC721NonexistentToken",
      "type": "error"
    },
    {
      "inputs": [
        {
          "internalType": "address",
          "name": "owner",
          "type": "address"
        },
        {
          "internalType": "uint256",
          "name": "index",
          "type": "uint256"
        }
      ],
      "name": "ERC721OutOfBoundsIndex",
      "type": "error"
    },
    {
      "inputs": [
        {
          "internalType": "address",
          "name": "owner",
          "type": "address"
        }
      ],
      "name": "OwnableInvalidOwner",
      "type": "error"
    },
    {
      "inputs": [
        {
          "internalType": "address",
          "name": "account",
          "type": "address"
        }
      ],
      "name": "OwnableUnauthorizedAccount",
      "type": "error"
    },
    {
      "anonymous": false,
      "inputs": [
        {
          "indexed": true,
          "internalType": "address",
          "name": "owner",
          "type": "address"
        },
        {
          "indexed": true,
          "internalType": "address",
          "name": "approved",
          "type": "address"
        },
        {
          "indexed": true,
          "internalType": "uint256",
          "name": "tokenId",
          "type": "uint256"
        }
      ],
      "name": "Approval",
      "type": "event"
    },
    {
      "anonymous": false,
      "inputs": [
        {
          "indexed": true,
          "internalType": "address",
          "name": "owner",
          "type": "address"
        },
        {
          "indexed": true,
          "internalType": "address",
          "name": "operator",
          "type": "address"
        },
        {
          "indexed": false,
          "internalType": "bool",
          "name": "approved",
          "type": "bool"
        }
      ],
      "name": "ApprovalForAll",
      "type": "event"
    },
    {
      "anonymous": false,
      "inputs": [
        {
          "indexed": false,
          "internalType": "uint256",
          "name": "_fromTokenId",
          "type": "uint256"
        },
        {
          "indexed": false,
          "internalType": "uint256",
          "name": "_toTokenId",
          "type": "uint256"
        }
      ],
      "name": "BatchMetadataUpdate",
      "type": "event"
    },
    {
      "anonymous": false,
      "inputs": [
        {
          "indexed": false,
          "internalType": "uint256",
          "name": "_tokenId",
          "type": "uint256"
        }
      ],
      "name": "MetadataUpdate",
      "type": "event"
    },
    {
      "anonymous": false,
      "inputs": [
        {
          "indexed": true,
          "internalType": "address",
          "name": "previousOwner",
          "type": "address"
        },
        {
          "indexed": true,
          "internalType": "address",
          "name": "newOwner",
          "type": "address"
        }
      ],
      "name": "OwnershipTransferred",
      "type": "event"
    },
    {
      "anonymous": false,
      "inputs": [
        {
          "indexed": true,
          "internalType": "address",
          "name": "from",
          "type": "address"
        },
        {
          "indexed": true,
          "internalType": "address",
          "name": "to",
          "type": "address"
        },
        {
          "indexed": true,
          "internalType": "uint256",
          "name": "tokenId",
          "type": "uint256"
        }
      ],
      "name": "Transfer",
      "type": "event"
    },
    {
      "inputs": [
        {
          "internalType": "address",
          "name": "to",
          "type": "address"
        },
        {
          "internalType": "uint256",
          "name": "tokenId",
          "type": "uint256"
        }
      ],
      "name": "approve",
      "outputs": [],
      "stateMutability": "nonpayable",
      "type": "function"
    },
    {
      "inputs": [
        {
          "internalType": "address",
          "name": "owner",
          "type": "address"
        }
      ],
      "name": "balanceOf",
      "outputs": [
        {
          "internalType": "uint256",
          "name": "",
          "type": "uint256"
        }
      ],
      "stateMutability": "view",
      "type": "function"
    },
    {
      "inputs": [
        {
          "internalType": "bool",
          "name": "_publicMintOpen",
          "type": "bool"
        },
        {
          "internalType": "bool",
          "name": "_prepaidMintOpen",
          "type": "bool"
        }
      ],
      "name": "editMintingOptions",
      "outputs": [],
      "stateMutability": "nonpayable",
      "type": "function"
    },
    {
      "inputs": [
        {
          "internalType": "uint256",
          "name": "tokenId",
          "type": "uint256"
        }
      ],
      "name": "getApproved",
      "outputs": [
        {
          "internalType": "address",
          "name": "",
          "type": "address"
        }
      ],
      "stateMutability": "view",
      "type": "function"
    },
    {
      "inputs": [
        {
          "internalType": "address",
          "name": "owner",
          "type": "address"
        },
        {
          "internalType": "address",
          "name": "operator",
          "type": "address"
        }
      ],
      "name": "isApprovedForAll",
      "outputs": [
        {
          "internalType": "bool",
          "name": "",
          "type": "bool"
        }
      ],
      "stateMutability": "view",
      "type": "function"
    },
    {
      "inputs": [],
      "name": "maxPerWallet",
      "outputs": [
        {
          "internalType": "uint256",
          "name": "",
          "type": "uint256"
        }
      ],
      "stateMutability": "view",
      "type": "function"
    },
    {
      "inputs": [],
      "name": "maxSupply",
      "outputs": [
        {
          "internalType": "uint256",
          "name": "",
          "type": "uint256"
        }
      ],
      "stateMutability": "view",
      "type": "function"
    },
    {
      "inputs": [],
      "name": "mintPrice",
      "outputs": [
        {
          "internalType": "uint256",
          "name": "",
          "type": "uint256"
        }
      ],
      "stateMutability": "view",
      "type": "function"
    },
    {
      "inputs": [],
      "name": "name",
      "outputs": [
        {
          "internalType": "string",
          "name": "",
          "type": "string"
        }
      ],
      "stateMutability": "view",
      "type": "function"
    },
    {
      "inputs": [],
      "name": "owner",
      "outputs": [
        {
          "internalType": "address",
          "name": "",
          "type": "address"
        }
      ],
      "stateMutability": "view",
      "type": "function"
    },
    {
      "inputs": [
        {
          "internalType": "uint256",
          "name": "tokenId",
          "type": "uint256"
        }
      ],
      "name": "ownerOf",
      "outputs": [
        {
          "internalType": "address",
          "name": "",
          "type": "address"
        }
      ],
      "stateMutability": "view",
      "type": "function"
    },
    {
      "inputs": [
        {
          "internalType": "address",
          "name": "",
          "type": "address"
        }
      ],
      "name": "prepaidList",
      "outputs": [
        {
          "internalType": "bool",
          "name": "",
          "type": "bool"
        }
      ],
      "stateMutability": "view",
      "type": "function"
    },
    {
      "inputs": [
        {
          "internalType": "string",
          "name": "uri",
          "type": "string"
        }
      ],
      "name": "prepaidMint",
      "outputs": [],
      "stateMutability": "payable",
      "type": "function"
    },
    {
      "inputs": [],
      "name": "prepaidMintOpen",
      "outputs": [
        {
          "internalType": "bool",
          "name": "",
          "type": "bool"
        }
      ],
      "stateMutability": "view",
      "type": "function"
    },
    {
      "inputs": [
        {
          "internalType": "string",
          "name": "uri",
          "type": "string"
        },
        {
          "internalType": "uint256",
          "name": "quantity_",
          "type": "uint256"
        }
      ],
      "name": "publicMint",
      "outputs": [],
      "stateMutability": "payable",
      "type": "function"
    },
    {
      "inputs": [],
      "name": "publicMintOpen",
      "outputs": [
        {
          "internalType": "bool",
          "name": "",
          "type": "bool"
        }
      ],
      "stateMutability": "view",
      "type": "function"
    },
    {
      "inputs": [],
      "name": "renounceOwnership",
      "outputs": [],
      "stateMutability": "nonpayable",
      "type": "function"
    },
    {
      "inputs": [
        {
          "internalType": "address",
          "name": "to",
          "type": "address"
        },
        {
          "internalType": "string",
          "name": "uri",
          "type": "string"
        }
      ],
      "name": "safeMint",
      "outputs": [],
      "stateMutability": "nonpayable",
      "type": "function"
    },
    {
      "inputs": [
        {
          "internalType": "address",
          "name": "from",
          "type": "address"
        },
        {
          "internalType": "address",
          "name": "to",
          "type": "address"
        },
        {
          "internalType": "uint256",
          "name": "tokenId",
          "type": "uint256"
        }
      ],
      "name": "safeTransferFrom",
      "outputs": [],
      "stateMutability": "nonpayable",
      "type": "function"
    },
    {
      "inputs": [
        {
          "internalType": "address",
          "name": "from",
          "type": "address"
        },
        {
          "internalType": "address",
          "name": "to",
          "type": "address"
        },
        {
          "internalType": "uint256",
          "name": "tokenId",
          "type": "uint256"
        },
        {
          "internalType": "bytes",
          "name": "data",
          "type": "bytes"
        }
      ],
      "name": "safeTransferFrom",
      "outputs": [],
      "stateMutability": "nonpayable",
      "type": "function"
    },
    {
      "inputs": [
        {
          "internalType": "address",
          "name": "operator",
          "type": "address"
        },
        {
          "internalType": "bool",
          "name": "approved",
          "type": "bool"
        }
      ],
      "name": "setApprovalForAll",
      "outputs": [],
      "stateMutability": "nonpayable",
      "type": "function"
    },
    {
      "inputs": [
        {
          "internalType": "address[]",
          "name": "addresses",
          "type": "address[]"
        }
      ],
      "name": "setPrepaidList",
      "outputs": [],
      "stateMutability": "nonpayable",
      "type": "function"
    },
    {
      "inputs": [
        {
          "internalType": "bytes4",
          "name": "interfaceId",
          "type": "bytes4"
        }
      ],
      "name": "supportsInterface",
      "outputs": [
        {
          "internalType": "bool",
          "name": "",
          "type": "bool"
        }
      ],
      "stateMutability": "view",
      "type": "function"
    },
    {
      "inputs": [],
      "name": "symbol",
      "outputs": [
        {
          "internalType": "string",
          "name": "",
          "type": "string"
        }
      ],
      "stateMutability": "view",
      "type": "function"
    },
    {
      "inputs": [
        {
          "internalType": "uint256",
          "name": "index",
          "type": "uint256"
        }
      ],
      "name": "tokenByIndex",
      "outputs": [
        {
          "internalType": "uint256",
          "name": "",
          "type": "uint256"
        }
      ],
      "stateMutability": "view",
      "type": "function"
    },
    {
      "inputs": [
        {
          "internalType": "address",
          "name": "owner",
          "type": "address"
        },
        {
          "internalType": "uint256",
          "name": "index",
          "type": "uint256"
        }
      ],
      "name": "tokenOfOwnerByIndex",
      "outputs": [
        {
          "internalType": "uint256",
          "name": "",
          "type": "uint256"
        }
      ],
      "stateMutability": "view",
      "type": "function"
    },
    {
      "inputs": [
        {
          "internalType": "uint256",
          "name": "tokenId",
          "type": "uint256"
        }
      ],
      "name": "tokenURI",
      "outputs": [
        {
          "internalType": "string",
          "name": "",
          "type": "string"
        }
      ],
      "stateMutability": "view",
      "type": "function"
    },
    {
      "inputs": [],
      "name": "totalAmount",
      "outputs": [
        {
          "internalType": "uint256",
          "name": "",
          "type": "uint256"
        }
      ],
      "stateMutability": "view",
      "type": "function"
    },
    {
      "inputs": [],
      "name": "totalSupply",
      "outputs": [
        {
          "internalType": "uint256",
          "name": "",
          "type": "uint256"
        }
      ],
      "stateMutability": "view",
      "type": "function"
    },
    {
      "inputs": [
        {
          "internalType": "address",
          "name": "from",
          "type": "address"
        },
        {
          "internalType": "address",
          "name": "to",
          "type": "address"
        },
        {
          "internalType": "uint256",
          "name": "tokenId",
          "type": "uint256"
        }
      ],
      "name": "transferFrom",
      "outputs": [],
      "stateMutability": "nonpayable",
      "type": "function"
    },
    {
      "inputs": [
        {
          "internalType": "address",
          "name": "newOwner",
          "type": "address"
        }
      ],
      "name": "transferOwnership",
      "outputs": [],
      "stateMutability": "nonpayable",
      "type": "function"
    },
    {
      "inputs": [
        {
          "internalType": "address",
          "name": "",
          "type": "address"
        }
      ],
      "name": "walletMints",
      "outputs": [
        {
          "internalType": "uint256",
          "name": "",
          "type": "uint256"
        }
      ],
      "stateMutability": "view",
      "type": "function"
    }
  ],
  "bytecode": "0x60806040526001601160006101000a81548160ff0219169083151502179055506001601160016101000a81548160ff0219169083151502179055503480156200004757600080fd5b50604051620042cb380380620042cb83398181016040528101906200006d9190620002e4565b806040518060400160405280600781526020017f47616d654e6674000000000000000000000000000000000000000000000000008152506040518060400160405280600481526020017f474e4654000000000000000000000000000000000000000000000000000000008152508160009081620000eb919062000590565b508060019081620000fd919062000590565b505050600073ffffffffffffffffffffffffffffffffffffffff168173ffffffffffffffffffffffffffffffffffffffff1603620001755760006040517f1e4fbdf70000000000000000000000000000000000000000000000000000000081526004016200016c919062000688565b60405180910390fd5b6200018681620001b460201b60201c565b50662386f26fc10000600f8190555060006010819055506064600d819055506003600e8190555050620006a5565b6000600b60009054906101000a900473ffffffffffffffffffffffffffffffffffffffff16905081600b60006101000a81548173ffffffffffffffffffffffffffffffffffffffff021916908373ffffffffffffffffffffffffffffffffffffffff1602179055508173ffffffffffffffffffffffffffffffffffffffff168173ffffffffffffffffffffffffffffffffffffffff167f8be0079c531659141344cd1fd0a4f28419497f9722a3daafe3b4186f6b6457e060405160405180910390a35050565b600080fd5b600073ffffffffffffffffffffffffffffffffffffffff82169050919050565b6000620002ac826200027f565b9050919050565b620002be816200029f565b8114620002ca57600080fd5b50565b600081519050620002de81620002b3565b92915050565b600060208284031215620002fd57620002fc6200027a565b5b60006200030d84828501620002cd565b91505092915050565b600081519050919050565b7f4e487b7100000000000000000000000000000000000000000000000000000000600052604160045260246000fd5b7f4e487b7100000000000000000000000000000000000000000000000000000000600052602260045260246000fd5b600060028204905060018216806200039857607f821691505b602082108103620003ae57620003ad62000350565b5b50919050565b60008190508160005260206000209050919050565b60006020601f8301049050919050565b600082821b905092915050565b600060088302620004187fffffffffffffffffffffffffffffffffffffffffffffffffffffffffffffffff82620003d9565b620004248683620003d9565b95508019841693508086168417925050509392505050565b6000819050919050565b6000819050919050565b6000620004716200046b62000465846200043c565b62000446565b6200043c565b9050919050565b6000819050919050565b6200048d8362000450565b620004a56200049c8262000478565b848454620003e6565b825550505050565b600090565b620004bc620004ad565b620004c981848462000482565b505050565b5b81811015620004f157620004e5600082620004b2565b600181019050620004cf565b5050565b601f82111562000540576200050a81620003b4565b6200051584620003c9565b8101602085101562000525578190505b6200053d6200053485620003c9565b830182620004ce565b50505b505050565b600082821c905092915050565b6000620005656000198460080262000545565b1980831691505092915050565b600062000580838362000552565b9150826002028217905092915050565b6200059b8262000316565b67ffffffffffffffff811115620005b757620005b662000321565b5b620005c382546200037f565b620005d0828285620004f5565b600060209050601f831160018114620006085760008415620005f3578287015190505b620005ff858262000572565b8655506200066f565b601f1984166200061886620003b4565b60005b8281101562000642578489015182556001820191506020850194506020810190506200061b565b868310156200066257848901516200065e601f89168262000552565b8355505b6001600288020188555050505b505050505050565b62000682816200029f565b82525050565b60006020820190506200069f600083018462000677565b92915050565b613c1680620006b56000396000f3fe6080604052600436106101e35760003560e01c8063715018a611610102578063d204c45e11610095578063e985e9c511610064578063e985e9c5146106f9578063f0293fd314610736578063f2fde38b14610773578063fda252c81461079c576101e3565b8063d204c45e1461063f578063d5abeb0114610668578063da1e48b414610693578063e4af4ef5146106bc576101e3565b8063a22cb465116100d1578063a22cb46514610585578063b88d4fde146105ae578063bcc9ca5b146105d7578063c87b56dd14610602576101e3565b8063715018a6146104ef5780638cf17b22146105065780638da5cb5b1461052f57806395d89b411461055a576101e3565b80632f745c591161017a578063634f4aff11610149578063634f4aff1461041f5780636352211e1461044a5780636817c76c1461048757806370a08231146104b2576101e3565b80632f745c591461035157806342842e0e1461038e578063453c2310146103b75780634f6ccce7146103e2576101e3565b806318160ddd116101b657806318160ddd146102b65780631a39d8ef146102e157806323b872dd1461030c5780632a98fbe914610335576101e3565b806301ffc9a7146101e857806306fdde0314610225578063081812fc14610250578063095ea7b31461028d575b600080fd5b3480156101f457600080fd5b5061020f600480360381019061020a91906129b7565b6107b8565b60405161021c91906129ff565b60405180910390f35b34801561023157600080fd5b5061023a6107ca565b6040516102479190612aaa565b60405180910390f35b34801561025c57600080fd5b5061027760048036038101906102729190612b02565b61085c565b6040516102849190612b70565b60405180910390f35b34801561029957600080fd5b506102b460048036038101906102af9190612bb7565b610878565b005b3480156102c257600080fd5b506102cb61088e565b6040516102d89190612c06565b60405180910390f35b3480156102ed57600080fd5b506102f661089b565b6040516103039190612c06565b60405180910390f35b34801561031857600080fd5b50610333600480360381019061032e9190612c21565b6108a1565b005b61034f600480360381019061034a9190612da9565b6109a3565b005b34801561035d57600080fd5b5061037860048036038101906103739190612bb7565b610b7c565b6040516103859190612c06565b60405180910390f35b34801561039a57600080fd5b506103b560048036038101906103b09190612c21565b610c25565b005b3480156103c357600080fd5b506103cc610c45565b6040516103d99190612c06565b60405180910390f35b3480156103ee57600080fd5b5061040960048036038101906104049190612b02565b610c4b565b6040516104169190612c06565b60405180910390f35b34801561042b57600080fd5b50610434610cc1565b60405161044191906129ff565b60405180910390f35b34801561045657600080fd5b50610471600480360381019061046c9190612b02565b610cd4565b60405161047e9190612b70565b60405180910390f35b34801561049357600080fd5b5061049c610ce6565b6040516104a99190612c06565b60405180910390f35b3480156104be57600080fd5b506104d960048036038101906104d49190612e05565b610cec565b6040516104e69190612c06565b60405180910390f35b3480156104fb57600080fd5b50610504610da6565b005b34801561051257600080fd5b5061052d60048036038101906105289190612e5e565b610dba565b005b34801561053b57600080fd5b50610544610dfa565b6040516105519190612b70565b60405180910390f35b34801561056657600080fd5b5061056f610e24565b60405161057c9190612aaa565b60405180910390f35b34801561059157600080fd5b506105ac60048036038101906105a79190612e9e565b610eb6565b005b3480156105ba57600080fd5b506105d560048036038101906105d09190612f7f565b610ecc565b005b3480156105e357600080fd5b506105ec610ee9565b6040516105f991906129ff565b60405180910390f35b34801561060e57600080fd5b5061062960048036038101906106249190612b02565b610efc565b6040516106369190612aaa565b60405180910390f35b34801561064b57600080fd5b5061066660048036038101906106619190613002565b610f0e565b005b34801561067457600080fd5b5061067d610f4a565b60405161068a9190612c06565b60405180910390f35b34801561069f57600080fd5b506106ba60048036038101906106b591906130be565b610f50565b005b3480156106c857600080fd5b506106e360048036038101906106de9190612e05565b610ffd565b6040516106f091906129ff565b60405180910390f35b34801561070557600080fd5b50610720600480360381019061071b919061310b565b61101d565b60405161072d91906129ff565b60405180910390f35b34801561074257600080fd5b5061075d60048036038101906107589190612e05565b6110b1565b60405161076a9190612c06565b60405180910390f35b34801561077f57600080fd5b5061079a60048036038101906107959190612e05565b6110c9565b005b6107b660048036038101906107b1919061314b565b61114f565b005b60006107c3826112ac565b9050919050565b6060600080546107d9906131c3565b80601f0160208091040260200160405190810160405280929190818152602001828054610805906131c3565b80156108525780601f1061082757610100808354040283529160200191610852565b820191906000526020600020905b81548152906001019060200180831161083557829003601f168201915b5050505050905090565b60006108678261130d565b5061087182611395565b9050919050565b61088a82826108856113d2565b6113da565b5050565b6000600880549050905090565b60105481565b600073ffffffffffffffffffffffffffffffffffffffff168273ffffffffffffffffffffffffffffffffffffffff16036109135760006040517f64a0ae9200000000000000000000000000000000000000000000000000000000815260040161090a9190612b70565b60405180910390fd5b600061092783836109226113d2565b6113ec565b90508373ffffffffffffffffffffffffffffffffffffffff168173ffffffffffffffffffffffffffffffffffffffff161461099d578382826040517f64283d7b000000000000000000000000000000000000000000000000000000008152600401610994939291906131f4565b60405180910390fd5b50505050565b60011515601160009054906101000a900460ff161515146109f9576040517f08c379a00000000000000000000000000000000000000000000000000000000081526004016109f09061329d565b60405180910390fd5b600f5481610a0791906132ec565b3414610a48576040517f08c379a0000000000000000000000000000000000000000000000000000000008152600401610a3f9061337a565b60405180910390fd5b600d5481601054610a59919061339a565b1115610a9a576040517f08c379a0000000000000000000000000000000000000000000000000000000008152600401610a9190613466565b60405180910390fd5b600e5481601260003373ffffffffffffffffffffffffffffffffffffffff1673ffffffffffffffffffffffffffffffffffffffff16815260200190815260200160002054610ae8919061339a565b1115610b29576040517f08c379a0000000000000000000000000000000000000000000000000000000008152600401610b20906134d2565b60405180910390fd5b60005b81811015610b77576000600c6000815480929190610b49906134f2565b919050559050610b593382611402565b610b638185611420565b508080610b6f906134f2565b915050610b2c565b505050565b6000610b8783610cec565b8210610bcc5782826040517fa57d13dc000000000000000000000000000000000000000000000000000000008152600401610bc392919061353a565b60405180910390fd5b600660008473ffffffffffffffffffffffffffffffffffffffff1673ffffffffffffffffffffffffffffffffffffffff168152602001908152602001600020600083815260200190815260200160002054905092915050565b610c4083838360405180602001604052806000815250610ecc565b505050565b600e5481565b6000610c5561088e565b8210610c9b576000826040517fa57d13dc000000000000000000000000000000000000000000000000000000008152600401610c9292919061353a565b60405180910390fd5b60088281548110610caf57610cae613563565b5b90600052602060002001549050919050565b601160019054906101000a900460ff1681565b6000610cdf8261130d565b9050919050565b600f5481565b60008073ffffffffffffffffffffffffffffffffffffffff168273ffffffffffffffffffffffffffffffffffffffff1603610d5f5760006040517f89c62b64000000000000000000000000000000000000000000000000000000008152600401610d569190612b70565b60405180910390fd5b600360008373ffffffffffffffffffffffffffffffffffffffff1673ffffffffffffffffffffffffffffffffffffffff168152602001908152602001600020549050919050565b610dae61147c565b610db86000611503565b565b610dc261147c565b81601160006101000a81548160ff02191690831515021790555080601160016101000a81548160ff0219169083151502179055505050565b6000600b60009054906101000a900473ffffffffffffffffffffffffffffffffffffffff16905090565b606060018054610e33906131c3565b80601f0160208091040260200160405190810160405280929190818152602001828054610e5f906131c3565b8015610eac5780601f10610e8157610100808354040283529160200191610eac565b820191906000526020600020905b815481529060010190602001808311610e8f57829003601f168201915b5050505050905090565b610ec8610ec16113d2565b83836115c9565b5050565b610ed78484846108a1565b610ee384848484611738565b50505050565b601160009054906101000a900460ff1681565b6060610f07826118ef565b9050919050565b610f1661147c565b6000600c6000815480929190610f2b906134f2565b919050559050610f3b8382611402565b610f458183611420565b505050565b600d5481565b610f5861147c565b60005b82829050811015610ff857600160136000858585818110610f7f57610f7e613563565b5b9050602002016020810190610f949190612e05565b73ffffffffffffffffffffffffffffffffffffffff1673ffffffffffffffffffffffffffffffffffffffff16815260200190815260200160002060006101000a81548160ff0219169083151502179055508080610ff0906134f2565b915050610f5b565b505050565b60136020528060005260406000206000915054906101000a900460ff1681565b6000600560008473ffffffffffffffffffffffffffffffffffffffff1673ffffffffffffffffffffffffffffffffffffffff16815260200190815260200160002060008373ffffffffffffffffffffffffffffffffffffffff1673ffffffffffffffffffffffffffffffffffffffff16815260200190815260200160002060009054906101000a900460ff16905092915050565b60126020528060005260406000206000915090505481565b6110d161147c565b600073ffffffffffffffffffffffffffffffffffffffff168173ffffffffffffffffffffffffffffffffffffffff16036111435760006040517f1e4fbdf700000000000000000000000000000000000000000000000000000000815260040161113a9190612b70565b60405180910390fd5b61114c81611503565b50565b60011515601160019054906101000a900460ff161515146111a5576040517f08c379a000000000000000000000000000000000000000000000000000000000815260040161119c906135de565b60405180910390fd5b601360003373ffffffffffffffffffffffffffffffffffffffff1673ffffffffffffffffffffffffffffffffffffffff16815260200190815260200160002060009054906101000a900460ff16611231576040517f08c379a000000000000000000000000000000000000000000000000000000000815260040161122890613670565b60405180910390fd5b655af3107a40003414611279576040517f08c379a000000000000000000000000000000000000000000000000000000000815260040161127090613702565b60405180910390fd5b6000600c600081548092919061128e906134f2565b91905055905061129e3382611402565b6112a88183611420565b5050565b6000634906490660e01b7bffffffffffffffffffffffffffffffffffffffffffffffffffffffff1916827bffffffffffffffffffffffffffffffffffffffffffffffffffffffff19161480611306575061130582611a02565b5b9050919050565b60008061131983611a7c565b9050600073ffffffffffffffffffffffffffffffffffffffff168173ffffffffffffffffffffffffffffffffffffffff160361138c57826040517f7e2732890000000000000000000000000000000000000000000000000000000081526004016113839190612c06565b60405180910390fd5b80915050919050565b60006004600083815260200190815260200160002060009054906101000a900473ffffffffffffffffffffffffffffffffffffffff169050919050565b600033905090565b6113e78383836001611ab9565b505050565b60006113f9848484611c7e565b90509392505050565b61141c828260405180602001604052806000815250611d9b565b5050565b80600a6000848152602001908152602001600020908161144091906138ce565b507ff8e1a15aba9398e019f0b49df1a4fde98ee17ae345cb5f6b5e2c27f5033e8ce7826040516114709190612c06565b60405180910390a15050565b6114846113d2565b73ffffffffffffffffffffffffffffffffffffffff166114a2610dfa565b73ffffffffffffffffffffffffffffffffffffffff1614611501576114c56113d2565b6040517f118cdaa70000000000000000000000000000000000000000000000000000000081526004016114f89190612b70565b60405180910390fd5b565b6000600b60009054906101000a900473ffffffffffffffffffffffffffffffffffffffff16905081600b60006101000a81548173ffffffffffffffffffffffffffffffffffffffff021916908373ffffffffffffffffffffffffffffffffffffffff1602179055508173ffffffffffffffffffffffffffffffffffffffff168173ffffffffffffffffffffffffffffffffffffffff167f8be0079c531659141344cd1fd0a4f28419497f9722a3daafe3b4186f6b6457e060405160405180910390a35050565b600073ffffffffffffffffffffffffffffffffffffffff168273ffffffffffffffffffffffffffffffffffffffff160361163a57816040517f5b08ba180000000000000000000000000000000000000000000000000000000081526004016116319190612b70565b60405180910390fd5b80600560008573ffffffffffffffffffffffffffffffffffffffff1673ffffffffffffffffffffffffffffffffffffffff16815260200190815260200160002060008473ffffffffffffffffffffffffffffffffffffffff1673ffffffffffffffffffffffffffffffffffffffff16815260200190815260200160002060006101000a81548160ff0219169083151502179055508173ffffffffffffffffffffffffffffffffffffffff168373ffffffffffffffffffffffffffffffffffffffff167f17307eab39ab6107e8899845ad3d59bd9653f200f220920489ca2b5937696c318360405161172b91906129ff565b60405180910390a3505050565b60008373ffffffffffffffffffffffffffffffffffffffff163b11156118e9578273ffffffffffffffffffffffffffffffffffffffff1663150b7a0261177c6113d2565b8685856040518563ffffffff1660e01b815260040161179e94939291906139f5565b6020604051808303816000875af19250505080156117da57506040513d601f19601f820116820180604052508101906117d79190613a56565b60015b61185e573d806000811461180a576040519150601f19603f3d011682016040523d82523d6000602084013e61180f565b606091505b50600081510361185657836040517f64a0ae9200000000000000000000000000000000000000000000000000000000815260040161184d9190612b70565b60405180910390fd5b805181602001fd5b63150b7a0260e01b7bffffffffffffffffffffffffffffffffffffffffffffffffffffffff1916817bffffffffffffffffffffffffffffffffffffffffffffffffffffffff1916146118e757836040517f64a0ae920000000000000000000000000000000000000000000000000000000081526004016118de9190612b70565b60405180910390fd5b505b50505050565b60606118fa8261130d565b506000600a6000848152602001908152602001600020805461191b906131c3565b80601f0160208091040260200160405190810160405280929190818152602001828054611947906131c3565b80156119945780601f1061196957610100808354040283529160200191611994565b820191906000526020600020905b81548152906001019060200180831161197757829003601f168201915b5050505050905060006119a5611db7565b905060008151036119ba5781925050506119fd565b6000825111156119ef5780826040516020016119d7929190613abf565b604051602081830303815290604052925050506119fd565b6119f884611dd7565b925050505b919050565b60007f780e9d63000000000000000000000000000000000000000000000000000000007bffffffffffffffffffffffffffffffffffffffffffffffffffffffff1916827bffffffffffffffffffffffffffffffffffffffffffffffffffffffff19161480611a755750611a7482611e40565b5b9050919050565b60006002600083815260200190815260200160002060009054906101000a900473ffffffffffffffffffffffffffffffffffffffff169050919050565b8080611af25750600073ffffffffffffffffffffffffffffffffffffffff168273ffffffffffffffffffffffffffffffffffffffff1614155b15611c26576000611b028461130d565b9050600073ffffffffffffffffffffffffffffffffffffffff168373ffffffffffffffffffffffffffffffffffffffff1614158015611b6d57508273ffffffffffffffffffffffffffffffffffffffff168173ffffffffffffffffffffffffffffffffffffffff1614155b8015611b805750611b7e818461101d565b155b15611bc257826040517fa9fbf51f000000000000000000000000000000000000000000000000000000008152600401611bb99190612b70565b60405180910390fd5b8115611c2457838573ffffffffffffffffffffffffffffffffffffffff168273ffffffffffffffffffffffffffffffffffffffff167f8c5be1e5ebec7d5bd14f71427d1e84f3dd0314c0f7b2291e5b200ac8c7c3b92560405160405180910390a45b505b836004600085815260200190815260200160002060006101000a81548173ffffffffffffffffffffffffffffffffffffffff021916908373ffffffffffffffffffffffffffffffffffffffff16021790555050505050565b600080611c8c858585611f22565b9050600073ffffffffffffffffffffffffffffffffffffffff168173ffffffffffffffffffffffffffffffffffffffff1603611cd057611ccb8461213c565b611d0f565b8473ffffffffffffffffffffffffffffffffffffffff168173ffffffffffffffffffffffffffffffffffffffff1614611d0e57611d0d8185612185565b5b5b600073ffffffffffffffffffffffffffffffffffffffff168573ffffffffffffffffffffffffffffffffffffffff1603611d5157611d4c846122e6565b611d90565b8473ffffffffffffffffffffffffffffffffffffffff168173ffffffffffffffffffffffffffffffffffffffff1614611d8f57611d8e85856123b7565b5b5b809150509392505050565b611da58383612442565b611db26000848484611738565b505050565b60606040518060a00160405280606b8152602001613b76606b9139905090565b6060611de28261130d565b506000611ded611db7565b90506000815111611e0d5760405180602001604052806000815250611e38565b80611e178461253b565b604051602001611e28929190613abf565b6040516020818303038152906040525b915050919050565b60007f80ac58cd000000000000000000000000000000000000000000000000000000007bffffffffffffffffffffffffffffffffffffffffffffffffffffffff1916827bffffffffffffffffffffffffffffffffffffffffffffffffffffffff19161480611f0b57507f5b5e139f000000000000000000000000000000000000000000000000000000007bffffffffffffffffffffffffffffffffffffffffffffffffffffffff1916827bffffffffffffffffffffffffffffffffffffffffffffffffffffffff1916145b80611f1b5750611f1a82612609565b5b9050919050565b600080611f2e84611a7c565b9050600073ffffffffffffffffffffffffffffffffffffffff168373ffffffffffffffffffffffffffffffffffffffff1614611f7057611f6f818486612673565b5b600073ffffffffffffffffffffffffffffffffffffffff168173ffffffffffffffffffffffffffffffffffffffff161461200157611fb2600085600080611ab9565b6001600360008373ffffffffffffffffffffffffffffffffffffffff1673ffffffffffffffffffffffffffffffffffffffff168152602001908152602001600020600082825403925050819055505b600073ffffffffffffffffffffffffffffffffffffffff168573ffffffffffffffffffffffffffffffffffffffff1614612084576001600360008773ffffffffffffffffffffffffffffffffffffffff1673ffffffffffffffffffffffffffffffffffffffff168152602001908152602001600020600082825401925050819055505b846002600086815260200190815260200160002060006101000a81548173ffffffffffffffffffffffffffffffffffffffff021916908373ffffffffffffffffffffffffffffffffffffffff160217905550838573ffffffffffffffffffffffffffffffffffffffff168273ffffffffffffffffffffffffffffffffffffffff167fddf252ad1be2c89b69c2b068fc378daa952ba7f163c4a11628f55a4df523b3ef60405160405180910390a4809150509392505050565b6008805490506009600083815260200190815260200160002081905550600881908060018154018082558091505060019003906000526020600020016000909190919091505550565b600061219083610cec565b9050600060076000848152602001908152602001600020549050818114612275576000600660008673ffffffffffffffffffffffffffffffffffffffff1673ffffffffffffffffffffffffffffffffffffffff168152602001908152602001600020600084815260200190815260200160002054905080600660008773ffffffffffffffffffffffffffffffffffffffff1673ffffffffffffffffffffffffffffffffffffffff168152602001908152602001600020600084815260200190815260200160002081905550816007600083815260200190815260200160002081905550505b6007600084815260200190815260200160002060009055600660008573ffffffffffffffffffffffffffffffffffffffff1673ffffffffffffffffffffffffffffffffffffffff16815260200190815260200160002060008381526020019081526020016000206000905550505050565b600060016008805490506122fa9190613ae3565b905060006009600084815260200190815260200160002054905060006008838154811061232a57612329613563565b5b90600052602060002001549050806008838154811061234c5761234b613563565b5b90600052602060002001819055508160096000838152602001908152602001600020819055506009600085815260200190815260200160002060009055600880548061239b5761239a613b17565b5b6001900381819060005260206000200160009055905550505050565b600060016123c484610cec565b6123ce9190613ae3565b905081600660008573ffffffffffffffffffffffffffffffffffffffff1673ffffffffffffffffffffffffffffffffffffffff168152602001908152602001600020600083815260200190815260200160002081905550806007600084815260200190815260200160002081905550505050565b600073ffffffffffffffffffffffffffffffffffffffff168273ffffffffffffffffffffffffffffffffffffffff16036124b45760006040517f64a0ae920000000000000000000000000000000000000000000000000000000081526004016124ab9190612b70565b60405180910390fd5b60006124c2838360006113ec565b9050600073ffffffffffffffffffffffffffffffffffffffff168173ffffffffffffffffffffffffffffffffffffffff16146125365760006040517f73c6ac6e00000000000000000000000000000000000000000000000000000000815260040161252d9190612b70565b60405180910390fd5b505050565b60606000600161254a84612737565b01905060008167ffffffffffffffff81111561256957612568612c7e565b5b6040519080825280601f01601f19166020018201604052801561259b5781602001600182028036833780820191505090505b509050600082602001820190505b6001156125fe578080600190039150507f3031323334353637383961626364656600000000000000000000000000000000600a86061a8153600a85816125f2576125f1613b46565b5b049450600085036125a9575b819350505050919050565b60007f01ffc9a7000000000000000000000000000000000000000000000000000000007bffffffffffffffffffffffffffffffffffffffffffffffffffffffff1916827bffffffffffffffffffffffffffffffffffffffffffffffffffffffff1916149050919050565b61267e83838361288a565b61273257600073ffffffffffffffffffffffffffffffffffffffff168373ffffffffffffffffffffffffffffffffffffffff16036126f357806040517f7e2732890000000000000000000000000000000000000000000000000000000081526004016126ea9190612c06565b60405180910390fd5b81816040517f177e802f00000000000000000000000000000000000000000000000000000000815260040161272992919061353a565b60405180910390fd5b505050565b600080600090507a184f03e93ff9f4daa797ed6e38ed64bf6a1f0100000000000000008310612795577a184f03e93ff9f4daa797ed6e38ed64bf6a1f010000000000000000838161278b5761278a613b46565b5b0492506040810190505b6d04ee2d6d415b85acef810000000083106127d2576d04ee2d6d415b85acef810000000083816127c8576127c7613b46565b5b0492506020810190505b662386f26fc10000831061280157662386f26fc1000083816127f7576127f6613b46565b5b0492506010810190505b6305f5e100831061282a576305f5e10083816128205761281f613b46565b5b0492506008810190505b612710831061284f57612710838161284557612844613b46565b5b0492506004810190505b60648310612872576064838161286857612867613b46565b5b0492506002810190505b600a8310612881576001810190505b80915050919050565b60008073ffffffffffffffffffffffffffffffffffffffff168373ffffffffffffffffffffffffffffffffffffffff161415801561294257508273ffffffffffffffffffffffffffffffffffffffff168473ffffffffffffffffffffffffffffffffffffffff1614806129035750612902848461101d565b5b8061294157508273ffffffffffffffffffffffffffffffffffffffff1661292983611395565b73ffffffffffffffffffffffffffffffffffffffff16145b5b90509392505050565b6000604051905090565b600080fd5b600080fd5b60007fffffffff0000000000000000000000000000000000000000000000000000000082169050919050565b6129948161295f565b811461299f57600080fd5b50565b6000813590506129b18161298b565b92915050565b6000602082840312156129cd576129cc612955565b5b60006129db848285016129a2565b91505092915050565b60008115159050919050565b6129f9816129e4565b82525050565b6000602082019050612a1460008301846129f0565b92915050565b600081519050919050565b600082825260208201905092915050565b60005b83811015612a54578082015181840152602081019050612a39565b60008484015250505050565b6000601f19601f8301169050919050565b6000612a7c82612a1a565b612a868185612a25565b9350612a96818560208601612a36565b612a9f81612a60565b840191505092915050565b60006020820190508181036000830152612ac48184612a71565b905092915050565b6000819050919050565b612adf81612acc565b8114612aea57600080fd5b50565b600081359050612afc81612ad6565b92915050565b600060208284031215612b1857612b17612955565b5b6000612b2684828501612aed565b91505092915050565b600073ffffffffffffffffffffffffffffffffffffffff82169050919050565b6000612b5a82612b2f565b9050919050565b612b6a81612b4f565b82525050565b6000602082019050612b856000830184612b61565b92915050565b612b9481612b4f565b8114612b9f57600080fd5b50565b600081359050612bb181612b8b565b92915050565b60008060408385031215612bce57612bcd612955565b5b6000612bdc85828601612ba2565b9250506020612bed85828601612aed565b9150509250929050565b612c0081612acc565b82525050565b6000602082019050612c1b6000830184612bf7565b92915050565b600080600060608486031215612c3a57612c39612955565b5b6000612c4886828701612ba2565b9350506020612c5986828701612ba2565b9250506040612c6a86828701612aed565b9150509250925092565b600080fd5b600080fd5b7f4e487b7100000000000000000000000000000000000000000000000000000000600052604160045260246000fd5b612cb682612a60565b810181811067ffffffffffffffff82111715612cd557612cd4612c7e565b5b80604052505050565b6000612ce861294b565b9050612cf48282612cad565b919050565b600067ffffffffffffffff821115612d1457612d13612c7e565b5b612d1d82612a60565b9050602081019050919050565b82818337600083830152505050565b6000612d4c612d4784612cf9565b612cde565b905082815260208101848484011115612d6857612d67612c79565b5b612d73848285612d2a565b509392505050565b600082601f830112612d9057612d8f612c74565b5b8135612da0848260208601612d39565b91505092915050565b60008060408385031215612dc057612dbf612955565b5b600083013567ffffffffffffffff811115612dde57612ddd61295a565b5b612dea85828601612d7b565b9250506020612dfb85828601612aed565b9150509250929050565b600060208284031215612e1b57612e1a612955565b5b6000612e2984828501612ba2565b91505092915050565b612e3b816129e4565b8114612e4657600080fd5b50565b600081359050612e5881612e32565b92915050565b60008060408385031215612e7557612e74612955565b5b6000612e8385828601612e49565b9250506020612e9485828601612e49565b9150509250929050565b60008060408385031215612eb557612eb4612955565b5b6000612ec385828601612ba2565b9250506020612ed485828601612e49565b9150509250929050565b600067ffffffffffffffff821115612ef957612ef8612c7e565b5b612f0282612a60565b9050602081019050919050565b6000612f22612f1d84612ede565b612cde565b905082815260208101848484011115612f3e57612f3d612c79565b5b612f49848285612d2a565b509392505050565b600082601f830112612f6657612f65612c74565b5b8135612f76848260208601612f0f565b91505092915050565b60008060008060808587031215612f9957612f98612955565b5b6000612fa787828801612ba2565b9450506020612fb887828801612ba2565b9350506040612fc987828801612aed565b925050606085013567ffffffffffffffff811115612fea57612fe961295a565b5b612ff687828801612f51565b91505092959194509250565b6000806040838503121561301957613018612955565b5b600061302785828601612ba2565b925050602083013567ffffffffffffffff8111156130485761304761295a565b5b61305485828601612d7b565b9150509250929050565b600080fd5b600080fd5b60008083601f84011261307e5761307d612c74565b5b8235905067ffffffffffffffff81111561309b5761309a61305e565b5b6020830191508360208202830111156130b7576130b6613063565b5b9250929050565b600080602083850312156130d5576130d4612955565b5b600083013567ffffffffffffffff8111156130f3576130f261295a565b5b6130ff85828601613068565b92509250509250929050565b6000806040838503121561312257613121612955565b5b600061313085828601612ba2565b925050602061314185828601612ba2565b9150509250929050565b60006020828403121561316157613160612955565b5b600082013567ffffffffffffffff81111561317f5761317e61295a565b5b61318b84828501612d7b565b91505092915050565b7f4e487b7100000000000000000000000000000000000000000000000000000000600052602260045260246000fd5b600060028204905060018216806131db57607f821691505b6020821081036131ee576131ed613194565b5b50919050565b60006060820190506132096000830186612b61565b6132166020830185612bf7565b6132236040830184612b61565b949350505050565b7f5075626c6963206d696e74696e6720697320636c6f736564206174207468652060008201527f6d6f6d656e740000000000000000000000000000000000000000000000000000602082015250565b6000613287602683612a25565b91506132928261322b565b604082019050919050565b600060208201905081810360008301526132b68161327a565b9050919050565b7f4e487b7100000000000000000000000000000000000000000000000000000000600052601160045260246000fd5b60006132f782612acc565b915061330283612acc565b925082820261331081612acc565b91508282048414831517613327576133266132bd565b5b5092915050565b7f4e6f7420656e6f7567682066756e6473206f6e20796f7572206163636f756e74600082015250565b6000613364602083612a25565b915061336f8261332e565b602082019050919050565b6000602082019050818103600083015261339381613357565b9050919050565b60006133a582612acc565b91506133b083612acc565b92508282019050808211156133c8576133c76132bd565b5b92915050565b7f536f7272792c20576520617265206e6f742061626c6520746f206d696e74207960008201527f6f7572204e46542064756520746f206d6178696d756d20737570706c7920726560208201527f6163686564000000000000000000000000000000000000000000000000000000604082015250565b6000613450604583612a25565b915061345b826133ce565b606082019050919050565b6000602082019050818103600083015261347f81613443565b9050919050565b7f6578636565646564206d6178206c696d697420666f72206d696e747300000000600082015250565b60006134bc601c83612a25565b91506134c782613486565b602082019050919050565b600060208201905081810360008301526134eb816134af565b9050919050565b60006134fd82612acc565b91507fffffffffffffffffffffffffffffffffffffffffffffffffffffffffffffffff820361352f5761352e6132bd565b5b600182019050919050565b600060408201905061354f6000830185612b61565b61355c6020830184612bf7565b9392505050565b7f4e487b7100000000000000000000000000000000000000000000000000000000600052603260045260246000fd5b7f596f757220636f6d70616e79206973206e6f7420617574686f72697a65640000600082015250565b60006135c8601e83612a25565b91506135d382613592565b602082019050919050565b600060208201905081810360008301526135f7816135bb565b9050919050565b7f596f757220636f6d70616e7920616472657373206973206e6f7420617574686f60008201527f72697a6564000000000000000000000000000000000000000000000000000000602082015250565b600061365a602583612a25565b9150613665826135fe565b604082019050919050565b600060208201905081810360008301526136898161364d565b9050919050565b7f506c65617365206d616b65207375726520796f7520686176652074686520726560008201527f71756972656420616d6f756e74206f6e20796f7572206163636f756e74000000602082015250565b60006136ec603d83612a25565b91506136f782613690565b604082019050919050565b6000602082019050818103600083015261371b816136df565b9050919050565b60008190508160005260206000209050919050565b60006020601f8301049050919050565b600082821b905092915050565b6000600883026137847fffffffffffffffffffffffffffffffffffffffffffffffffffffffffffffffff82613747565b61378e8683613747565b95508019841693508086168417925050509392505050565b6000819050919050565b60006137cb6137c66137c184612acc565b6137a6565b612acc565b9050919050565b6000819050919050565b6137e5836137b0565b6137f96137f1826137d2565b848454613754565b825550505050565b600090565b61380e613801565b6138198184846137dc565b505050565b5b8181101561383d57613832600082613806565b60018101905061381f565b5050565b601f8211156138825761385381613722565b61385c84613737565b8101602085101561386b578190505b61387f61387785613737565b83018261381e565b50505b505050565b600082821c905092915050565b60006138a560001984600802613887565b1980831691505092915050565b60006138be8383613894565b9150826002028217905092915050565b6138d782612a1a565b67ffffffffffffffff8111156138f0576138ef612c7e565b5b6138fa82546131c3565b613905828285613841565b600060209050601f8311600181146139385760008415613926578287015190505b61393085826138b2565b865550613998565b601f19841661394686613722565b60005b8281101561396e57848901518255600182019150602085019450602081019050613949565b8683101561398b5784890151613987601f891682613894565b8355505b6001600288020188555050505b505050505050565b600081519050919050565b600082825260208201905092915050565b60006139c7826139a0565b6139d181856139ab565b93506139e1818560208601612a36565b6139ea81612a60565b840191505092915050565b6000608082019050613a0a6000830187612b61565b613a176020830186612b61565b613a246040830185612bf7565b8181036060830152613a3681846139bc565b905095945050505050565b600081519050613a508161298b565b92915050565b600060208284031215613a6c57613a6b612955565b5b6000613a7a84828501613a41565b91505092915050565b600081905092915050565b6000613a9982612a1a565b613aa38185613a83565b9350613ab3818560208601612a36565b80840191505092915050565b6000613acb8285613a8e565b9150613ad78284613a8e565b91508190509392505050565b6000613aee82612acc565b9150613af983612acc565b9250828203905081811115613b1157613b106132bd565b5b92915050565b7f4e487b7100000000000000000000000000000000000000000000000000000000600052603160045260246000fd5b7f4e487b7100000000000000000000000000000000000000000000000000000000600052601260045260246000fdfe697066733a2f2f525467324f4551304e6b59344d44413452444577515441304d5551366157745464555130546b52615a465635516a56764d474672654568486432517a536c4e494d4774615347685651314e6e633368784e44706e5957316c626d5a305a584a6a4e7a4978a2646970667358221220682280e98b5f611354cfddfb9093dee07d4d8aa55135ddb8cca978cb5c183e9464736f6c63430008140033",
  "linkReferences": {},
  "deployedLinkReferences": {}
}